{
  "contractName": "ITHelpdesk",
  "abi": [
    {
      "inputs": [],
      "stateMutability": "nonpayable",
      "type": "constructor"
    },
    {
      "anonymous": false,
      "inputs": [
        {
          "indexed": true,
          "internalType": "address",
          "name": "owner",
          "type": "address"
        },
        {
          "indexed": true,
          "internalType": "address",
          "name": "approved",
          "type": "address"
        },
        {
          "indexed": true,
          "internalType": "uint256",
          "name": "tokenId",
          "type": "uint256"
        }
      ],
      "name": "Approval",
      "type": "event"
    },
    {
      "anonymous": false,
      "inputs": [
        {
          "indexed": true,
          "internalType": "address",
          "name": "owner",
          "type": "address"
        },
        {
          "indexed": true,
          "internalType": "address",
          "name": "operator",
          "type": "address"
        },
        {
          "indexed": false,
          "internalType": "bool",
          "name": "approved",
          "type": "bool"
        }
      ],
      "name": "ApprovalForAll",
      "type": "event"
    },
    {
      "anonymous": false,
      "inputs": [
        {
          "indexed": true,
          "internalType": "uint256",
          "name": "ticketId",
          "type": "uint256"
        },
        {
          "indexed": false,
          "internalType": "string",
          "name": "title",
          "type": "string"
        },
        {
          "indexed": false,
          "internalType": "string",
          "name": "issue",
          "type": "string"
        },
        {
          "indexed": false,
          "internalType": "string",
          "name": "description",
          "type": "string"
        },
        {
          "indexed": false,
          "internalType": "uint8",
          "name": "difficulty",
          "type": "uint8"
        },
        {
          "indexed": false,
          "internalType": "uint8",
          "name": "deviceType",
          "type": "uint8"
        }
      ],
      "name": "TicketCreated",
      "type": "event"
    },
    {
      "anonymous": false,
      "inputs": [
        {
          "indexed": true,
          "internalType": "address",
          "name": "from",
          "type": "address"
        },
        {
          "indexed": true,
          "internalType": "address",
          "name": "to",
          "type": "address"
        },
        {
          "indexed": true,
          "internalType": "uint256",
          "name": "tokenId",
          "type": "uint256"
        }
      ],
      "name": "Transfer",
      "type": "event"
    },
    {
      "inputs": [
        {
          "internalType": "address",
          "name": "to",
          "type": "address"
        },
        {
          "internalType": "uint256",
          "name": "tokenId",
          "type": "uint256"
        }
      ],
      "name": "approve",
      "outputs": [],
      "stateMutability": "nonpayable",
      "type": "function"
    },
    {
      "inputs": [
        {
          "internalType": "address",
          "name": "owner",
          "type": "address"
        }
      ],
      "name": "balanceOf",
      "outputs": [
        {
          "internalType": "uint256",
          "name": "",
          "type": "uint256"
        }
      ],
      "stateMutability": "view",
      "type": "function",
      "constant": true
    },
    {
      "inputs": [],
      "name": "contractOwner",
      "outputs": [
        {
          "internalType": "address payable",
          "name": "",
          "type": "address"
        }
      ],
      "stateMutability": "view",
      "type": "function",
      "constant": true
    },
    {
      "inputs": [
        {
          "internalType": "uint256",
          "name": "tokenId",
          "type": "uint256"
        }
      ],
      "name": "getApproved",
      "outputs": [
        {
          "internalType": "address",
          "name": "",
          "type": "address"
        }
      ],
      "stateMutability": "view",
      "type": "function",
      "constant": true
    },
    {
      "inputs": [
        {
          "internalType": "address",
          "name": "owner",
          "type": "address"
        },
        {
          "internalType": "address",
          "name": "operator",
          "type": "address"
        }
      ],
      "name": "isApprovedForAll",
      "outputs": [
        {
          "internalType": "bool",
          "name": "",
          "type": "bool"
        }
      ],
      "stateMutability": "view",
      "type": "function",
      "constant": true
    },
    {
      "inputs": [],
      "name": "name",
      "outputs": [
        {
          "internalType": "string",
          "name": "",
          "type": "string"
        }
      ],
      "stateMutability": "view",
      "type": "function",
      "constant": true
    },
    {
      "inputs": [
        {
          "internalType": "uint256",
          "name": "tokenId",
          "type": "uint256"
        }
      ],
      "name": "ownerOf",
      "outputs": [
        {
          "internalType": "address",
          "name": "",
          "type": "address"
        }
      ],
      "stateMutability": "view",
      "type": "function",
      "constant": true
    },
    {
      "inputs": [
        {
          "internalType": "address",
          "name": "from",
          "type": "address"
        },
        {
          "internalType": "address",
          "name": "to",
          "type": "address"
        },
        {
          "internalType": "uint256",
          "name": "tokenId",
          "type": "uint256"
        }
      ],
      "name": "safeTransferFrom",
      "outputs": [],
      "stateMutability": "nonpayable",
      "type": "function"
    },
    {
      "inputs": [
        {
          "internalType": "address",
          "name": "from",
          "type": "address"
        },
        {
          "internalType": "address",
          "name": "to",
          "type": "address"
        },
        {
          "internalType": "uint256",
          "name": "tokenId",
          "type": "uint256"
        },
        {
          "internalType": "bytes",
          "name": "data",
          "type": "bytes"
        }
      ],
      "name": "safeTransferFrom",
      "outputs": [],
      "stateMutability": "nonpayable",
      "type": "function"
    },
    {
      "inputs": [
        {
          "internalType": "address",
          "name": "operator",
          "type": "address"
        },
        {
          "internalType": "bool",
          "name": "approved",
          "type": "bool"
        }
      ],
      "name": "setApprovalForAll",
      "outputs": [],
      "stateMutability": "nonpayable",
      "type": "function"
    },
    {
      "inputs": [
        {
          "internalType": "bytes4",
          "name": "interfaceId",
          "type": "bytes4"
        }
      ],
      "name": "supportsInterface",
      "outputs": [
        {
          "internalType": "bool",
          "name": "",
          "type": "bool"
        }
      ],
      "stateMutability": "view",
      "type": "function",
      "constant": true
    },
    {
      "inputs": [],
      "name": "symbol",
      "outputs": [
        {
          "internalType": "string",
          "name": "",
          "type": "string"
        }
      ],
      "stateMutability": "view",
      "type": "function",
      "constant": true
    },
    {
      "inputs": [],
      "name": "ticketCount",
      "outputs": [
        {
          "internalType": "uint256",
          "name": "",
          "type": "uint256"
        }
      ],
      "stateMutability": "view",
      "type": "function",
      "constant": true
    },
    {
      "inputs": [
        {
          "internalType": "uint256",
          "name": "",
          "type": "uint256"
        }
      ],
      "name": "tickets",
      "outputs": [
        {
          "internalType": "uint256",
          "name": "id",
          "type": "uint256"
        },
        {
          "internalType": "address",
          "name": "user",
          "type": "address"
        },
        {
          "internalType": "string",
          "name": "title",
          "type": "string"
        },
        {
          "internalType": "string",
          "name": "issue",
          "type": "string"
        },
        {
          "internalType": "string",
          "name": "description",
          "type": "string"
        },
        {
          "internalType": "bool",
          "name": "resolved",
          "type": "bool"
        },
        {
          "internalType": "enum ITHelpdesk.Difficulty",
          "name": "difficulty",
          "type": "uint8"
        },
        {
          "internalType": "enum ITHelpdesk.DeviceType",
          "name": "deviceType",
          "type": "uint8"
        },
        {
          "internalType": "string",
          "name": "solution",
          "type": "string"
        }
      ],
      "stateMutability": "view",
      "type": "function",
      "constant": true
    },
    {
      "inputs": [
        {
          "internalType": "uint256",
          "name": "tokenId",
          "type": "uint256"
        }
      ],
      "name": "tokenURI",
      "outputs": [
        {
          "internalType": "string",
          "name": "",
          "type": "string"
        }
      ],
      "stateMutability": "view",
      "type": "function",
      "constant": true
    },
    {
      "inputs": [
        {
          "internalType": "address",
          "name": "from",
          "type": "address"
        },
        {
          "internalType": "address",
          "name": "to",
          "type": "address"
        },
        {
          "internalType": "uint256",
          "name": "tokenId",
          "type": "uint256"
        }
      ],
      "name": "transferFrom",
      "outputs": [],
      "stateMutability": "nonpayable",
      "type": "function"
    },
    {
      "inputs": [
        {
          "internalType": "uint256",
          "name": "_ticketId",
          "type": "uint256"
        }
      ],
      "name": "fetchTicket",
      "outputs": [
        {
          "components": [
            {
              "internalType": "uint256",
              "name": "id",
              "type": "uint256"
            },
            {
              "internalType": "address",
              "name": "user",
              "type": "address"
            },
            {
              "internalType": "string",
              "name": "title",
              "type": "string"
            },
            {
              "internalType": "string",
              "name": "issue",
              "type": "string"
            },
            {
              "internalType": "string",
              "name": "description",
              "type": "string"
            },
            {
              "internalType": "bool",
              "name": "resolved",
              "type": "bool"
            },
            {
              "internalType": "enum ITHelpdesk.Difficulty",
              "name": "difficulty",
              "type": "uint8"
            },
            {
              "internalType": "enum ITHelpdesk.DeviceType",
              "name": "deviceType",
              "type": "uint8"
            },
            {
              "internalType": "string",
              "name": "solution",
              "type": "string"
            },
            {
              "internalType": "string[]",
              "name": "notes",
              "type": "string[]"
            }
          ],
          "internalType": "struct ITHelpdesk.Ticket",
          "name": "",
          "type": "tuple"
        }
      ],
      "stateMutability": "view",
      "type": "function",
      "constant": true
    },
    {
      "inputs": [
        {
          "internalType": "string",
          "name": "_title",
          "type": "string"
        },
        {
          "internalType": "string",
          "name": "_issue",
          "type": "string"
        },
        {
          "internalType": "string",
          "name": "_description",
          "type": "string"
        },
        {
          "internalType": "uint8",
          "name": "_difficulty",
          "type": "uint8"
        },
        {
          "internalType": "uint8",
          "name": "_deviceType",
          "type": "uint8"
        }
      ],
      "name": "createTicket",
      "outputs": [
        {
          "internalType": "uint256",
          "name": "",
          "type": "uint256"
        }
      ],
      "stateMutability": "payable",
      "type": "function",
      "payable": true
    },
    {
      "inputs": [
        {
          "internalType": "uint256",
          "name": "_ticketId",
          "type": "uint256"
        },
        {
          "internalType": "string",
          "name": "_title",
          "type": "string"
        },
        {
          "internalType": "string",
          "name": "_issue",
          "type": "string"
        },
        {
          "internalType": "string",
          "name": "_description",
          "type": "string"
        },
        {
          "internalType": "enum ITHelpdesk.Difficulty",
          "name": "_difficulty",
          "type": "uint8"
        },
        {
          "internalType": "enum ITHelpdesk.DeviceType",
          "name": "_deviceType",
          "type": "uint8"
        }
      ],
      "name": "updateTicket",
      "outputs": [],
      "stateMutability": "nonpayable",
      "type": "function"
    },
    {
      "inputs": [
        {
          "internalType": "uint256",
          "name": "_ticketId",
          "type": "uint256"
        },
        {
          "internalType": "bool",
          "name": "_resolved",
          "type": "bool"
        }
      ],
      "name": "changeStatus",
      "outputs": [],
      "stateMutability": "nonpayable",
      "type": "function"
    },
    {
      "inputs": [
        {
          "internalType": "uint256",
          "name": "_ticketId",
          "type": "uint256"
        },
        {
          "internalType": "string",
          "name": "_solution",
          "type": "string"
        }
      ],
      "name": "ticketSolution",
      "outputs": [],
      "stateMutability": "nonpayable",
      "type": "function"
    },
    {
      "inputs": [
        {
          "internalType": "uint256",
          "name": "_ticketId",
          "type": "uint256"
        },
        {
          "internalType": "string",
          "name": "_note",
          "type": "string"
        }
      ],
      "name": "ticketNotes",
      "outputs": [],
      "stateMutability": "nonpayable",
      "type": "function"
    },
    {
      "inputs": [
        {
          "internalType": "uint256",
          "name": "_ticketId",
          "type": "uint256"
        }
      ],
      "name": "resolveTicket",
      "outputs": [],
      "stateMutability": "nonpayable",
      "type": "function"
    },
    {
      "inputs": [
        {
          "internalType": "uint256",
          "name": "_ticketId",
          "type": "uint256"
        }
      ],
      "name": "getTicketStatus",
      "outputs": [
        {
          "internalType": "bool",
          "name": "",
          "type": "bool"
        }
      ],
      "stateMutability": "view",
      "type": "function",
      "constant": true
    },
    {
      "inputs": [
        {
          "internalType": "uint256",
          "name": "_ticketId",
          "type": "uint256"
        }
      ],
      "name": "getTicketDifficulty",
      "outputs": [
        {
          "internalType": "enum ITHelpdesk.Difficulty",
          "name": "",
          "type": "uint8"
        }
      ],
      "stateMutability": "view",
      "type": "function",
      "constant": true
    },
    {
      "inputs": [],
      "name": "getNumberOfTickets",
      "outputs": [
        {
          "internalType": "uint256",
          "name": "",
          "type": "uint256"
        }
      ],
      "stateMutability": "view",
      "type": "function",
      "constant": true
    }
  ],
  "bytecode": "0x60806040523480156200001157600080fd5b506040518060400160405280601181526020017f43727970746f54656368537570706f72740000000000000000000000000000008152506040518060400160405280600381526020017f435453000000000000000000000000000000000000000000000000000000000081525081600090816200008f919062000365565b508060019081620000a1919062000365565b50505033600860006101000a81548173ffffffffffffffffffffffffffffffffffffffff021916908373ffffffffffffffffffffffffffffffffffffffff1602179055506200044c565b600081519050919050565b7f4e487b7100000000000000000000000000000000000000000000000000000000600052604160045260246000fd5b7f4e487b7100000000000000000000000000000000000000000000000000000000600052602260045260246000fd5b600060028204905060018216806200016d57607f821691505b60208210810362000183576200018262000125565b5b50919050565b60008190508160005260206000209050919050565b60006020601f8301049050919050565b600082821b905092915050565b600060088302620001ed7fffffffffffffffffffffffffffffffffffffffffffffffffffffffffffffffff82620001ae565b620001f98683620001ae565b95508019841693508086168417925050509392505050565b6000819050919050565b6000819050919050565b600062000246620002406200023a8462000211565b6200021b565b62000211565b9050919050565b6000819050919050565b620002628362000225565b6200027a62000271826200024d565b848454620001bb565b825550505050565b600090565b6200029162000282565b6200029e81848462000257565b505050565b5b81811015620002c657620002ba60008262000287565b600181019050620002a4565b5050565b601f8211156200031557620002df8162000189565b620002ea846200019e565b81016020851015620002fa578190505b6200031262000309856200019e565b830182620002a3565b50505b505050565b600082821c905092915050565b60006200033a600019846008026200031a565b1980831691505092915050565b600062000355838362000327565b9150826002028217905092915050565b6200037082620000eb565b67ffffffffffffffff8111156200038c576200038b620000f6565b5b62000398825462000154565b620003a5828285620002ca565b600060209050601f831160018114620003dd5760008415620003c8578287015190505b620003d4858262000347565b86555062000444565b601f198416620003ed8662000189565b60005b828110156200041757848901518255600182019150602085019450602081019050620003f0565b8683101562000437578489015162000433601f89168262000327565b8355505b6001600288020188555050505b505050505050565b6145d3806200045c6000396000f3fe6080604052600436106101815760003560e01c806395d89b41116100d1578063cfbd900f1161008a578063e985e9c511610064578063e985e9c5146105c5578063f893a42914610602578063fa2693b31461062b578063fb87774c1461065457610181565b8063cfbd900f14610541578063d0018b611461056c578063e23e11481461059c57610181565b806395d89b411461041f578063a22cb4651461044a578063b88d4fde14610473578063bacc10ae1461049c578063c87b56dd146104d9578063ce606ee01461051657610181565b806345d8c7861161013e5780636352211e116101185780636352211e146103515780636b9d27381461038e57806370a08231146103b75780639582260a146103f457610181565b806345d8c786146102a657806350b44712146102cf5780635105d5261461031457610181565b806301ffc9a71461018657806306fdde03146101c3578063081812fc146101ee578063095ea7b31461022b57806323b872dd1461025457806342842e0e1461027d575b600080fd5b34801561019257600080fd5b506101ad60048036038101906101a89190612ab7565b610691565b6040516101ba9190612aff565b60405180910390f35b3480156101cf57600080fd5b506101d8610773565b6040516101e59190612baa565b60405180910390f35b3480156101fa57600080fd5b5061021560048036038101906102109190612c02565b610805565b6040516102229190612c70565b60405180910390f35b34801561023757600080fd5b50610252600480360381019061024d9190612cb7565b61084b565b005b34801561026057600080fd5b5061027b60048036038101906102769190612cf7565b610962565b005b34801561028957600080fd5b506102a4600480360381019061029f9190612cf7565b6109c2565b005b3480156102b257600080fd5b506102cd60048036038101906102c89190612c02565b6109e2565b005b3480156102db57600080fd5b506102f660048036038101906102f19190612c02565b610b6b565b60405161030b99989796959493929190612e18565b60405180910390f35b34801561032057600080fd5b5061033b60048036038101906103369190612c02565b610e20565b604051610348919061310e565b60405180910390f35b34801561035d57600080fd5b5061037860048036038101906103739190612c02565b611260565b6040516103859190612c70565b60405180910390f35b34801561039a57600080fd5b506103b560048036038101906103b09190613265565b6112e6565b005b3480156103c357600080fd5b506103de60048036038101906103d991906132c1565b611415565b6040516103eb91906132ee565b60405180910390f35b34801561040057600080fd5b506104096114cc565b60405161041691906132ee565b60405180910390f35b34801561042b57600080fd5b506104346114d6565b6040516104419190612baa565b60405180910390f35b34801561045657600080fd5b50610471600480360381019061046c9190613335565b611568565b005b34801561047f57600080fd5b5061049a60048036038101906104959190613416565b61157e565b005b3480156104a857600080fd5b506104c360048036038101906104be9190612c02565b6115e0565b6040516104d09190613499565b60405180910390f35b3480156104e557600080fd5b5061050060048036038101906104fb9190612c02565b61160d565b60405161050d9190612baa565b60405180910390f35b34801561052257600080fd5b5061052b611675565b60405161053891906134d5565b60405180910390f35b34801561054d57600080fd5b5061055661169b565b60405161056391906132ee565b60405180910390f35b61058660048036038101906105819190613529565b6116a1565b60405161059391906132ee565b60405180910390f35b3480156105a857600080fd5b506105c360048036038101906105be9190613642565b611a02565b005b3480156105d157600080fd5b506105ec60048036038101906105e79190613723565b611b96565b6040516105f99190612aff565b60405180910390f35b34801561060e57600080fd5b5061062960048036038101906106249190613265565b611c2a565b005b34801561063757600080fd5b50610652600480360381019061064d9190613763565b611c77565b005b34801561066057600080fd5b5061067b60048036038101906106769190612c02565b611d7d565b6040516106889190612aff565b60405180910390f35b60007f80ac58cd000000000000000000000000000000000000000000000000000000007bffffffffffffffffffffffffffffffffffffffffffffffffffffffff1916827bffffffffffffffffffffffffffffffffffffffffffffffffffffffff1916148061075c57507f5b5e139f000000000000000000000000000000000000000000000000000000007bffffffffffffffffffffffffffffffffffffffffffffffffffffffff1916827bffffffffffffffffffffffffffffffffffffffffffffffffffffffff1916145b8061076c575061076b82611daa565b5b9050919050565b606060008054610782906137d2565b80601f01602080910402602001604051908101604052809291908181526020018280546107ae906137d2565b80156107fb5780601f106107d0576101008083540402835291602001916107fb565b820191906000526020600020905b8154815290600101906020018083116107de57829003601f168201915b5050505050905090565b600061081082611e14565b6004600083815260200190815260200160002060009054906101000a900473ffffffffffffffffffffffffffffffffffffffff169050919050565b600061085682611260565b90508073ffffffffffffffffffffffffffffffffffffffff168373ffffffffffffffffffffffffffffffffffffffff16036108c6576040517f08c379a00000000000000000000000000000000000000000000000000000000081526004016108bd90613875565b60405180910390fd5b8073ffffffffffffffffffffffffffffffffffffffff166108e5611e5f565b73ffffffffffffffffffffffffffffffffffffffff16148061091457506109138161090e611e5f565b611b96565b5b610953576040517f08c379a000000000000000000000000000000000000000000000000000000000815260040161094a90613907565b60405180910390fd5b61095d8383611e67565b505050565b61097361096d611e5f565b82611f20565b6109b2576040517f08c379a00000000000000000000000000000000000000000000000000000000081526004016109a990613999565b60405180910390fd5b6109bd838383611fb5565b505050565b6109dd8383836040518060200160405280600081525061157e565b505050565b3373ffffffffffffffffffffffffffffffffffffffff166007600083815260200190815260200160002060010160009054906101000a900473ffffffffffffffffffffffffffffffffffffffff1673ffffffffffffffffffffffffffffffffffffffff1614610a86576040517f08c379a0000000000000000000000000000000000000000000000000000000008152600401610a7d90613a2b565b60405180910390fd5b6007600082815260200190815260200160002060050160009054906101000a900460ff1615610aea576040517f08c379a0000000000000000000000000000000000000000000000000000000008152600401610ae190613a97565b60405180910390fd5b60016007600083815260200190815260200160002060050160006101000a81548160ff0219169083151502179055503373ffffffffffffffffffffffffffffffffffffffff166108fc670de0b6b3a76400009081150290604051600060405180830381858888f19350505050158015610b67573d6000803e3d6000fd5b5050565b60076020528060005260406000206000915090508060000154908060010160009054906101000a900473ffffffffffffffffffffffffffffffffffffffff1690806002018054610bba906137d2565b80601f0160208091040260200160405190810160405280929190818152602001828054610be6906137d2565b8015610c335780601f10610c0857610100808354040283529160200191610c33565b820191906000526020600020905b815481529060010190602001808311610c1657829003601f168201915b505050505090806003018054610c48906137d2565b80601f0160208091040260200160405190810160405280929190818152602001828054610c74906137d2565b8015610cc15780601f10610c9657610100808354040283529160200191610cc1565b820191906000526020600020905b815481529060010190602001808311610ca457829003601f168201915b505050505090806004018054610cd6906137d2565b80601f0160208091040260200160405190810160405280929190818152602001828054610d02906137d2565b8015610d4f5780601f10610d2457610100808354040283529160200191610d4f565b820191906000526020600020905b815481529060010190602001808311610d3257829003601f168201915b5050505050908060050160009054906101000a900460ff16908060050160019054906101000a900460ff16908060050160029054906101000a900460ff1690806006018054610d9d906137d2565b80601f0160208091040260200160405190810160405280929190818152602001828054610dc9906137d2565b8015610e165780601f10610deb57610100808354040283529160200191610e16565b820191906000526020600020905b815481529060010190602001808311610df957829003601f168201915b5050505050905089565b610e286128e2565b6007600083815260200190815260200160002060405180610140016040529081600082015481526020016001820160009054906101000a900473ffffffffffffffffffffffffffffffffffffffff1673ffffffffffffffffffffffffffffffffffffffff1673ffffffffffffffffffffffffffffffffffffffff168152602001600282018054610eb7906137d2565b80601f0160208091040260200160405190810160405280929190818152602001828054610ee3906137d2565b8015610f305780601f10610f0557610100808354040283529160200191610f30565b820191906000526020600020905b815481529060010190602001808311610f1357829003601f168201915b50505050508152602001600382018054610f49906137d2565b80601f0160208091040260200160405190810160405280929190818152602001828054610f75906137d2565b8015610fc25780601f10610f9757610100808354040283529160200191610fc2565b820191906000526020600020905b815481529060010190602001808311610fa557829003601f168201915b50505050508152602001600482018054610fdb906137d2565b80601f0160208091040260200160405190810160405280929190818152602001828054611007906137d2565b80156110545780601f1061102957610100808354040283529160200191611054565b820191906000526020600020905b81548152906001019060200180831161103757829003601f168201915b505050505081526020016005820160009054906101000a900460ff161515151581526020016005820160019054906101000a900460ff16600281111561109d5761109c612d59565b5b60028111156110af576110ae612d59565b5b81526020016005820160029054906101000a900460ff1660028111156110d8576110d7612d59565b5b60028111156110ea576110e9612d59565b5b81526020016006820180546110fe906137d2565b80601f016020809104026020016040519081016040528092919081815260200182805461112a906137d2565b80156111775780601f1061114c57610100808354040283529160200191611177565b820191906000526020600020905b81548152906001019060200180831161115a57829003601f168201915b5050505050815260200160078201805480602002602001604051908101604052809291908181526020016000905b828210156112515783829060005260206000200180546111c4906137d2565b80601f01602080910402602001604051908101604052809291908181526020018280546111f0906137d2565b801561123d5780601f106112125761010080835404028352916020019161123d565b820191906000526020600020905b81548152906001019060200180831161122057829003601f168201915b5050505050815260200190600101906111a5565b50505050815250509050919050565b60008061126c836122ae565b9050600073ffffffffffffffffffffffffffffffffffffffff168173ffffffffffffffffffffffffffffffffffffffff16036112dd576040517f08c379a00000000000000000000000000000000000000000000000000000000081526004016112d490613b03565b60405180910390fd5b80915050919050565b6007600083815260200190815260200160002060050160009054906101000a900460ff16611349576040517f08c379a000000000000000000000000000000000000000000000000000000000815260040161134090613b95565b60405180910390fd5b3373ffffffffffffffffffffffffffffffffffffffff166007600084815260200190815260200160002060010160009054906101000a900473ffffffffffffffffffffffffffffffffffffffff1673ffffffffffffffffffffffffffffffffffffffff16146113ed576040517f08c379a00000000000000000000000000000000000000000000000000000000081526004016113e490613c27565b60405180910390fd5b806007600084815260200190815260200160002060060190816114109190613df3565b505050565b60008073ffffffffffffffffffffffffffffffffffffffff168273ffffffffffffffffffffffffffffffffffffffff1603611485576040517f08c379a000000000000000000000000000000000000000000000000000000000815260040161147c90613f37565b60405180910390fd5b600360008373ffffffffffffffffffffffffffffffffffffffff1673ffffffffffffffffffffffffffffffffffffffff168152602001908152602001600020549050919050565b6000600654905090565b6060600180546114e5906137d2565b80601f0160208091040260200160405190810160405280929190818152602001828054611511906137d2565b801561155e5780601f106115335761010080835404028352916020019161155e565b820191906000526020600020905b81548152906001019060200180831161154157829003601f168201915b5050505050905090565b61157a611573611e5f565b83836122eb565b5050565b61158f611589611e5f565b83611f20565b6115ce576040517f08c379a00000000000000000000000000000000000000000000000000000000081526004016115c590613999565b60405180910390fd5b6115da84848484612457565b50505050565b60006007600083815260200190815260200160002060050160019054906101000a900460ff169050919050565b606061161882611e14565b60006116226124b3565b90506000815111611642576040518060200160405280600081525061166d565b8061164c846124ca565b60405160200161165d929190613f93565b6040516020818303038152906040525b915050919050565b600860009054906101000a900473ffffffffffffffffffffffffffffffffffffffff1681565b60065481565b600080662386f26fc100009050600060405180610140016040528060065481526020013373ffffffffffffffffffffffffffffffffffffffff1681526020018981526020018881526020018781526020016000151581526020018660ff16600281111561171157611710612d59565b5b600281111561172357611722612d59565b5b81526020018560ff16600281111561173e5761173d612d59565b5b60028111156117505761174f612d59565b5b8152602001604051806020016040528060008152508152602001600067ffffffffffffffff8111156117855761178461313a565b5b6040519080825280602002602001820160405280156117b857816020015b60608152602001906001900390816117a35790505b508152509050806007600060065481526020019081526020016000206000820151816000015560208201518160010160006101000a81548173ffffffffffffffffffffffffffffffffffffffff021916908373ffffffffffffffffffffffffffffffffffffffff160217905550604082015181600201908161183a9190613df3565b5060608201518160030190816118509190613df3565b5060808201518160040190816118669190613df3565b5060a08201518160050160006101000a81548160ff02191690831515021790555060c08201518160050160016101000a81548160ff021916908360028111156118b2576118b1612d59565b5b021790555060e08201518160050160026101000a81548160ff021916908360028111156118e2576118e1612d59565b5b02179055506101008201518160060190816118fd9190613df3565b5061012082015181600701908051906020019061191b929190612971565b509050506006600081548092919061193290613fe6565b9190505550600860009054906101000a900473ffffffffffffffffffffffffffffffffffffffff1673ffffffffffffffffffffffffffffffffffffffff166108fc839081150290604051600060405180830381858888f1935050505015801561199f573d6000803e3d6000fd5b50600060016006546119b1919061402e565b9050807f8250b7e61eb7eb379d1cb8d82f43cbda010eb85086cf878c2598dabfee0c8c558a8a8a8a8a6040516119eb959493929190614071565b60405180910390a280935050505095945050505050565b3373ffffffffffffffffffffffffffffffffffffffff166007600088815260200190815260200160002060010160009054906101000a900473ffffffffffffffffffffffffffffffffffffffff1673ffffffffffffffffffffffffffffffffffffffff1614611aa6576040517f08c379a0000000000000000000000000000000000000000000000000000000008152600401611a9d9061414b565b60405180910390fd5b84600760008881526020019081526020016000206002019081611ac99190613df3565b5083600760008881526020019081526020016000206003019081611aed9190613df3565b5082600760008881526020019081526020016000206004019081611b119190613df3565b50816007600088815260200190815260200160002060050160016101000a81548160ff02191690836002811115611b4b57611b4a612d59565b5b0217905550806007600088815260200190815260200160002060050160026101000a81548160ff02191690836002811115611b8957611b88612d59565b5b0217905550505050505050565b6000600560008473ffffffffffffffffffffffffffffffffffffffff1673ffffffffffffffffffffffffffffffffffffffff16815260200190815260200160002060008373ffffffffffffffffffffffffffffffffffffffff1673ffffffffffffffffffffffffffffffffffffffff16815260200190815260200160002060009054906101000a900460ff16905092915050565b6007600083815260200190815260200160002060070181908060018154018082558091505060019003906000526020600020016000909190919091509081611c729190613df3565b505050565b600860009054906101000a900473ffffffffffffffffffffffffffffffffffffffff1673ffffffffffffffffffffffffffffffffffffffff163373ffffffffffffffffffffffffffffffffffffffff1614611d07576040517f08c379a0000000000000000000000000000000000000000000000000000000008152600401611cfe906141dd565b60405180910390fd5b6006548210611d4b576040517f08c379a0000000000000000000000000000000000000000000000000000000008152600401611d4290614249565b60405180910390fd5b806007600084815260200190815260200160002060050160006101000a81548160ff0219169083151502179055505050565b60006007600083815260200190815260200160002060050160009054906101000a900460ff169050919050565b60007f01ffc9a7000000000000000000000000000000000000000000000000000000007bffffffffffffffffffffffffffffffffffffffffffffffffffffffff1916827bffffffffffffffffffffffffffffffffffffffffffffffffffffffff1916149050919050565b611e1d81612598565b611e5c576040517f08c379a0000000000000000000000000000000000000000000000000000000008152600401611e5390613b03565b60405180910390fd5b50565b600033905090565b816004600083815260200190815260200160002060006101000a81548173ffffffffffffffffffffffffffffffffffffffff021916908373ffffffffffffffffffffffffffffffffffffffff160217905550808273ffffffffffffffffffffffffffffffffffffffff16611eda83611260565b73ffffffffffffffffffffffffffffffffffffffff167f8c5be1e5ebec7d5bd14f71427d1e84f3dd0314c0f7b2291e5b200ac8c7c3b92560405160405180910390a45050565b600080611f2c83611260565b90508073ffffffffffffffffffffffffffffffffffffffff168473ffffffffffffffffffffffffffffffffffffffff161480611f6e5750611f6d8185611b96565b5b80611fac57508373ffffffffffffffffffffffffffffffffffffffff16611f9484610805565b73ffffffffffffffffffffffffffffffffffffffff16145b91505092915050565b8273ffffffffffffffffffffffffffffffffffffffff16611fd582611260565b73ffffffffffffffffffffffffffffffffffffffff161461202b576040517f08c379a0000000000000000000000000000000000000000000000000000000008152600401612022906142db565b60405180910390fd5b600073ffffffffffffffffffffffffffffffffffffffff168273ffffffffffffffffffffffffffffffffffffffff160361209a576040517f08c379a00000000000000000000000000000000000000000000000000000000081526004016120919061436d565b60405180910390fd5b6120a783838360016125d9565b8273ffffffffffffffffffffffffffffffffffffffff166120c782611260565b73ffffffffffffffffffffffffffffffffffffffff161461211d576040517f08c379a0000000000000000000000000000000000000000000000000000000008152600401612114906142db565b60405180910390fd5b6004600082815260200190815260200160002060006101000a81549073ffffffffffffffffffffffffffffffffffffffff02191690556001600360008573ffffffffffffffffffffffffffffffffffffffff1673ffffffffffffffffffffffffffffffffffffffff168152602001908152602001600020600082825403925050819055506001600360008473ffffffffffffffffffffffffffffffffffffffff1673ffffffffffffffffffffffffffffffffffffffff16815260200190815260200160002060008282540192505081905550816002600083815260200190815260200160002060006101000a81548173ffffffffffffffffffffffffffffffffffffffff021916908373ffffffffffffffffffffffffffffffffffffffff160217905550808273ffffffffffffffffffffffffffffffffffffffff168473ffffffffffffffffffffffffffffffffffffffff167fddf252ad1be2c89b69c2b068fc378daa952ba7f163c4a11628f55a4df523b3ef60405160405180910390a46122a983838360016125df565b505050565b60006002600083815260200190815260200160002060009054906101000a900473ffffffffffffffffffffffffffffffffffffffff169050919050565b8173ffffffffffffffffffffffffffffffffffffffff168373ffffffffffffffffffffffffffffffffffffffff1603612359576040517f08c379a0000000000000000000000000000000000000000000000000000000008152600401612350906143d9565b60405180910390fd5b80600560008573ffffffffffffffffffffffffffffffffffffffff1673ffffffffffffffffffffffffffffffffffffffff16815260200190815260200160002060008473ffffffffffffffffffffffffffffffffffffffff1673ffffffffffffffffffffffffffffffffffffffff16815260200190815260200160002060006101000a81548160ff0219169083151502179055508173ffffffffffffffffffffffffffffffffffffffff168373ffffffffffffffffffffffffffffffffffffffff167f17307eab39ab6107e8899845ad3d59bd9653f200f220920489ca2b5937696c318360405161244a9190612aff565b60405180910390a3505050565b612462848484611fb5565b61246e848484846125e5565b6124ad576040517f08c379a00000000000000000000000000000000000000000000000000000000081526004016124a49061446b565b60405180910390fd5b50505050565b606060405180602001604052806000815250905090565b6060600060016124d98461276c565b01905060008167ffffffffffffffff8111156124f8576124f761313a565b5b6040519080825280601f01601f19166020018201604052801561252a5781602001600182028036833780820191505090505b509050600082602001820190505b60011561258d578080600190039150507f3031323334353637383961626364656600000000000000000000000000000000600a86061a8153600a85816125815761258061448b565b5b04945060008503612538575b819350505050919050565b60008073ffffffffffffffffffffffffffffffffffffffff166125ba836122ae565b73ffffffffffffffffffffffffffffffffffffffff1614159050919050565b50505050565b50505050565b60006126068473ffffffffffffffffffffffffffffffffffffffff166128bf565b1561275f578373ffffffffffffffffffffffffffffffffffffffff1663150b7a0261262f611e5f565b8786866040518563ffffffff1660e01b8152600401612651949392919061450f565b6020604051808303816000875af192505050801561268d57506040513d601f19601f8201168201806040525081019061268a9190614570565b60015b61270f573d80600081146126bd576040519150601f19603f3d011682016040523d82523d6000602084013e6126c2565b606091505b506000815103612707576040517f08c379a00000000000000000000000000000000000000000000000000000000081526004016126fe9061446b565b60405180910390fd5b805181602001fd5b63150b7a0260e01b7bffffffffffffffffffffffffffffffffffffffffffffffffffffffff1916817bffffffffffffffffffffffffffffffffffffffffffffffffffffffff191614915050612764565b600190505b949350505050565b600080600090507a184f03e93ff9f4daa797ed6e38ed64bf6a1f01000000000000000083106127ca577a184f03e93ff9f4daa797ed6e38ed64bf6a1f01000000000000000083816127c0576127bf61448b565b5b0492506040810190505b6d04ee2d6d415b85acef81000000008310612807576d04ee2d6d415b85acef810000000083816127fd576127fc61448b565b5b0492506020810190505b662386f26fc10000831061283657662386f26fc10000838161282c5761282b61448b565b5b0492506010810190505b6305f5e100831061285f576305f5e10083816128555761285461448b565b5b0492506008810190505b612710831061288457612710838161287a5761287961448b565b5b0492506004810190505b606483106128a7576064838161289d5761289c61448b565b5b0492506002810190505b600a83106128b6576001810190505b80915050919050565b6000808273ffffffffffffffffffffffffffffffffffffffff163b119050919050565b60405180610140016040528060008152602001600073ffffffffffffffffffffffffffffffffffffffff1681526020016060815260200160608152602001606081526020016000151581526020016000600281111561294457612943612d59565b5b81526020016000600281111561295d5761295c612d59565b5b815260200160608152602001606081525090565b8280548282559060005260206000209081019282156129b9579160200282015b828111156129b85782518290816129a89190613df3565b5091602001919060010190612991565b5b5090506129c691906129ca565b5090565b5b808211156129ea57600081816129e191906129ee565b506001016129cb565b5090565b5080546129fa906137d2565b6000825580601f10612a0c5750612a2b565b601f016020900490600052602060002090810190612a2a9190612a2e565b5b50565b5b80821115612a47576000816000905550600101612a2f565b5090565b6000604051905090565b600080fd5b600080fd5b60007fffffffff0000000000000000000000000000000000000000000000000000000082169050919050565b612a9481612a5f565b8114612a9f57600080fd5b50565b600081359050612ab181612a8b565b92915050565b600060208284031215612acd57612acc612a55565b5b6000612adb84828501612aa2565b91505092915050565b60008115159050919050565b612af981612ae4565b82525050565b6000602082019050612b146000830184612af0565b92915050565b600081519050919050565b600082825260208201905092915050565b60005b83811015612b54578082015181840152602081019050612b39565b60008484015250505050565b6000601f19601f8301169050919050565b6000612b7c82612b1a565b612b868185612b25565b9350612b96818560208601612b36565b612b9f81612b60565b840191505092915050565b60006020820190508181036000830152612bc48184612b71565b905092915050565b6000819050919050565b612bdf81612bcc565b8114612bea57600080fd5b50565b600081359050612bfc81612bd6565b92915050565b600060208284031215612c1857612c17612a55565b5b6000612c2684828501612bed565b91505092915050565b600073ffffffffffffffffffffffffffffffffffffffff82169050919050565b6000612c5a82612c2f565b9050919050565b612c6a81612c4f565b82525050565b6000602082019050612c856000830184612c61565b92915050565b612c9481612c4f565b8114612c9f57600080fd5b50565b600081359050612cb181612c8b565b92915050565b60008060408385031215612cce57612ccd612a55565b5b6000612cdc85828601612ca2565b9250506020612ced85828601612bed565b9150509250929050565b600080600060608486031215612d1057612d0f612a55565b5b6000612d1e86828701612ca2565b9350506020612d2f86828701612ca2565b9250506040612d4086828701612bed565b9150509250925092565b612d5381612bcc565b82525050565b7f4e487b7100000000000000000000000000000000000000000000000000000000600052602160045260246000fd5b60038110612d9957612d98612d59565b5b50565b6000819050612daa82612d88565b919050565b6000612dba82612d9c565b9050919050565b612dca81612daf565b82525050565b60038110612de157612de0612d59565b5b50565b6000819050612df282612dd0565b919050565b6000612e0282612de4565b9050919050565b612e1281612df7565b82525050565b600061012082019050612e2e600083018c612d4a565b612e3b602083018b612c61565b8181036040830152612e4d818a612b71565b90508181036060830152612e618189612b71565b90508181036080830152612e758188612b71565b9050612e8460a0830187612af0565b612e9160c0830186612dc1565b612e9e60e0830185612e09565b818103610100830152612eb18184612b71565b90509a9950505050505050505050565b612eca81612bcc565b82525050565b612ed981612c4f565b82525050565b600082825260208201905092915050565b6000612efb82612b1a565b612f058185612edf565b9350612f15818560208601612b36565b612f1e81612b60565b840191505092915050565b612f3281612ae4565b82525050565b612f4181612daf565b82525050565b612f5081612df7565b82525050565b600081519050919050565b600082825260208201905092915050565b6000819050602082019050919050565b6000612f8e8383612ef0565b905092915050565b6000602082019050919050565b6000612fae82612f56565b612fb88185612f61565b935083602082028501612fca85612f72565b8060005b858110156130065784840389528151612fe78582612f82565b9450612ff283612f96565b925060208a01995050600181019050612fce565b50829750879550505050505092915050565b6000610140830160008301516130316000860182612ec1565b5060208301516130446020860182612ed0565b506040830151848203604086015261305c8282612ef0565b915050606083015184820360608601526130768282612ef0565b915050608083015184820360808601526130908282612ef0565b91505060a08301516130a560a0860182612f29565b5060c08301516130b860c0860182612f38565b5060e08301516130cb60e0860182612f47565b506101008301518482036101008601526130e58282612ef0565b9150506101208301518482036101208601526131018282612fa3565b9150508091505092915050565b600060208201905081810360008301526131288184613018565b905092915050565b600080fd5b600080fd5b7f4e487b7100000000000000000000000000000000000000000000000000000000600052604160045260246000fd5b61317282612b60565b810181811067ffffffffffffffff821117156131915761319061313a565b5b80604052505050565b60006131a4612a4b565b90506131b08282613169565b919050565b600067ffffffffffffffff8211156131d0576131cf61313a565b5b6131d982612b60565b9050602081019050919050565b82818337600083830152505050565b6000613208613203846131b5565b61319a565b90508281526020810184848401111561322457613223613135565b5b61322f8482856131e6565b509392505050565b600082601f83011261324c5761324b613130565b5b813561325c8482602086016131f5565b91505092915050565b6000806040838503121561327c5761327b612a55565b5b600061328a85828601612bed565b925050602083013567ffffffffffffffff8111156132ab576132aa612a5a565b5b6132b785828601613237565b9150509250929050565b6000602082840312156132d7576132d6612a55565b5b60006132e584828501612ca2565b91505092915050565b60006020820190506133036000830184612d4a565b92915050565b61331281612ae4565b811461331d57600080fd5b50565b60008135905061332f81613309565b92915050565b6000806040838503121561334c5761334b612a55565b5b600061335a85828601612ca2565b925050602061336b85828601613320565b9150509250929050565b600067ffffffffffffffff8211156133905761338f61313a565b5b61339982612b60565b9050602081019050919050565b60006133b96133b484613375565b61319a565b9050828152602081018484840111156133d5576133d4613135565b5b6133e08482856131e6565b509392505050565b600082601f8301126133fd576133fc613130565b5b813561340d8482602086016133a6565b91505092915050565b600080600080608085870312156134305761342f612a55565b5b600061343e87828801612ca2565b945050602061344f87828801612ca2565b935050604061346087828801612bed565b925050606085013567ffffffffffffffff81111561348157613480612a5a565b5b61348d878288016133e8565b91505092959194509250565b60006020820190506134ae6000830184612dc1565b92915050565b60006134bf82612c2f565b9050919050565b6134cf816134b4565b82525050565b60006020820190506134ea60008301846134c6565b92915050565b600060ff82169050919050565b613506816134f0565b811461351157600080fd5b50565b600081359050613523816134fd565b92915050565b600080600080600060a0868803121561354557613544612a55565b5b600086013567ffffffffffffffff81111561356357613562612a5a565b5b61356f88828901613237565b955050602086013567ffffffffffffffff8111156135905761358f612a5a565b5b61359c88828901613237565b945050604086013567ffffffffffffffff8111156135bd576135bc612a5a565b5b6135c988828901613237565b93505060606135da88828901613514565b92505060806135eb88828901613514565b9150509295509295909350565b6003811061360557600080fd5b50565b600081359050613617816135f8565b92915050565b6003811061362a57600080fd5b50565b60008135905061363c8161361d565b92915050565b60008060008060008060c0878903121561365f5761365e612a55565b5b600061366d89828a01612bed565b965050602087013567ffffffffffffffff81111561368e5761368d612a5a565b5b61369a89828a01613237565b955050604087013567ffffffffffffffff8111156136bb576136ba612a5a565b5b6136c789828a01613237565b945050606087013567ffffffffffffffff8111156136e8576136e7612a5a565b5b6136f489828a01613237565b935050608061370589828a01613608565b92505060a061371689828a0161362d565b9150509295509295509295565b6000806040838503121561373a57613739612a55565b5b600061374885828601612ca2565b925050602061375985828601612ca2565b9150509250929050565b6000806040838503121561377a57613779612a55565b5b600061378885828601612bed565b925050602061379985828601613320565b9150509250929050565b7f4e487b7100000000000000000000000000000000000000000000000000000000600052602260045260246000fd5b600060028204905060018216806137ea57607f821691505b6020821081036137fd576137fc6137a3565b5b50919050565b7f4552433732313a20617070726f76616c20746f2063757272656e74206f776e6560008201527f7200000000000000000000000000000000000000000000000000000000000000602082015250565b600061385f602183612b25565b915061386a82613803565b604082019050919050565b6000602082019050818103600083015261388e81613852565b9050919050565b7f4552433732313a20617070726f76652063616c6c6572206973206e6f7420746f60008201527f6b656e206f776e6572206f7220617070726f76656420666f7220616c6c000000602082015250565b60006138f1603d83612b25565b91506138fc82613895565b604082019050919050565b60006020820190508181036000830152613920816138e4565b9050919050565b7f4552433732313a2063616c6c6572206973206e6f7420746f6b656e206f776e6560008201527f72206f7220617070726f76656400000000000000000000000000000000000000602082015250565b6000613983602d83612b25565b915061398e82613927565b604082019050919050565b600060208201905081810360008301526139b281613976565b9050919050565b7f4f6e6c79207469636b65742063726561746f722063616e207265736f6c76652060008201527f7469636b65740000000000000000000000000000000000000000000000000000602082015250565b6000613a15602683612b25565b9150613a20826139b9565b604082019050919050565b60006020820190508181036000830152613a4481613a08565b9050919050565b7f5469636b657420616c7265616479207265736f6c766564000000000000000000600082015250565b6000613a81601783612b25565b9150613a8c82613a4b565b602082019050919050565b60006020820190508181036000830152613ab081613a74565b9050919050565b7f4552433732313a20696e76616c696420746f6b656e2049440000000000000000600082015250565b6000613aed601883612b25565b9150613af882613ab7565b602082019050919050565b60006020820190508181036000830152613b1c81613ae0565b9050919050565b7f5469636b6574206d757374206265207265736f6c76656420746f207375626d6960008201527f74206120736f6c7574696f6e0000000000000000000000000000000000000000602082015250565b6000613b7f602c83612b25565b9150613b8a82613b23565b604082019050919050565b60006020820190508181036000830152613bae81613b72565b9050919050565b7f4f6e6c79207469636b65742063726561746f722063616e207375626d6974206160008201527f20736f6c7574696f6e0000000000000000000000000000000000000000000000602082015250565b6000613c11602983612b25565b9150613c1c82613bb5565b604082019050919050565b60006020820190508181036000830152613c4081613c04565b9050919050565b60008190508160005260206000209050919050565b60006020601f8301049050919050565b600082821b905092915050565b600060088302613ca97fffffffffffffffffffffffffffffffffffffffffffffffffffffffffffffffff82613c6c565b613cb38683613c6c565b95508019841693508086168417925050509392505050565b6000819050919050565b6000613cf0613ceb613ce684612bcc565b613ccb565b612bcc565b9050919050565b6000819050919050565b613d0a83613cd5565b613d1e613d1682613cf7565b848454613c79565b825550505050565b600090565b613d33613d26565b613d3e818484613d01565b505050565b5b81811015613d6257613d57600082613d2b565b600181019050613d44565b5050565b601f821115613da757613d7881613c47565b613d8184613c5c565b81016020851015613d90578190505b613da4613d9c85613c5c565b830182613d43565b50505b505050565b600082821c905092915050565b6000613dca60001984600802613dac565b1980831691505092915050565b6000613de38383613db9565b9150826002028217905092915050565b613dfc82612b1a565b67ffffffffffffffff811115613e1557613e1461313a565b5b613e1f82546137d2565b613e2a828285613d66565b600060209050601f831160018114613e5d5760008415613e4b578287015190505b613e558582613dd7565b865550613ebd565b601f198416613e6b86613c47565b60005b82811015613e9357848901518255600182019150602085019450602081019050613e6e565b86831015613eb05784890151613eac601f891682613db9565b8355505b6001600288020188555050505b505050505050565b7f4552433732313a2061646472657373207a65726f206973206e6f74206120766160008201527f6c6964206f776e65720000000000000000000000000000000000000000000000602082015250565b6000613f21602983612b25565b9150613f2c82613ec5565b604082019050919050565b60006020820190508181036000830152613f5081613f14565b9050919050565b600081905092915050565b6000613f6d82612b1a565b613f778185613f57565b9350613f87818560208601612b36565b80840191505092915050565b6000613f9f8285613f62565b9150613fab8284613f62565b91508190509392505050565b7f4e487b7100000000000000000000000000000000000000000000000000000000600052601160045260246000fd5b6000613ff182612bcc565b91507fffffffffffffffffffffffffffffffffffffffffffffffffffffffffffffffff820361402357614022613fb7565b5b600182019050919050565b600061403982612bcc565b915061404483612bcc565b925082820390508181111561405c5761405b613fb7565b5b92915050565b61406b816134f0565b82525050565b600060a082019050818103600083015261408b8188612b71565b9050818103602083015261409f8187612b71565b905081810360408301526140b38186612b71565b90506140c26060830185614062565b6140cf6080830184614062565b9695505050505050565b7f4f6e6c79207469636b65742063726561746f722063616e20757064617465207460008201527f69636b6574000000000000000000000000000000000000000000000000000000602082015250565b6000614135602583612b25565b9150614140826140d9565b604082019050919050565b6000602082019050818103600083015261416481614128565b9050919050565b7f4f6e6c7920636f6e7472616374206f776e65722063616e206368616e6765207460008201527f69636b6574207374617475730000000000000000000000000000000000000000602082015250565b60006141c7602c83612b25565b91506141d28261416b565b604082019050919050565b600060208201905081810360008301526141f6816141ba565b9050919050565b7f496e76616c6964207469636b6574204944000000000000000000000000000000600082015250565b6000614233601183612b25565b915061423e826141fd565b602082019050919050565b6000602082019050818103600083015261426281614226565b9050919050565b7f4552433732313a207472616e736665722066726f6d20696e636f72726563742060008201527f6f776e6572000000000000000000000000000000000000000000000000000000602082015250565b60006142c5602583612b25565b91506142d082614269565b604082019050919050565b600060208201905081810360008301526142f4816142b8565b9050919050565b7f4552433732313a207472616e7366657220746f20746865207a65726f2061646460008201527f7265737300000000000000000000000000000000000000000000000000000000602082015250565b6000614357602483612b25565b9150614362826142fb565b604082019050919050565b600060208201905081810360008301526143868161434a565b9050919050565b7f4552433732313a20617070726f766520746f2063616c6c657200000000000000600082015250565b60006143c3601983612b25565b91506143ce8261438d565b602082019050919050565b600060208201905081810360008301526143f2816143b6565b9050919050565b7f4552433732313a207472616e7366657220746f206e6f6e20455243373231526560008201527f63656976657220696d706c656d656e7465720000000000000000000000000000602082015250565b6000614455603283612b25565b9150614460826143f9565b604082019050919050565b6000602082019050818103600083015261448481614448565b9050919050565b7f4e487b7100000000000000000000000000000000000000000000000000000000600052601260045260246000fd5b600081519050919050565b600082825260208201905092915050565b60006144e1826144ba565b6144eb81856144c5565b93506144fb818560208601612b36565b61450481612b60565b840191505092915050565b60006080820190506145246000830187612c61565b6145316020830186612c61565b61453e6040830185612d4a565b818103606083015261455081846144d6565b905095945050505050565b60008151905061456a81612a8b565b92915050565b60006020828403121561458657614585612a55565b5b60006145948482850161455b565b9150509291505056fea2646970667358221220a0681ed34c82ea95e5d0e47bfbc41c95af331ca962d853f094e3516ee6881c8664736f6c63430008100033",
  "immutableReferences": {},
  "source": "//SPDX-License-Identifier: UNLICENSED\n\n//Name 1: Joshua Wajnryb\n//UBIT 1: jwajnryb\n//Person Number 1: 50366137\n\n//Name 2: Naglis Paunksnis\n//UBIT 2: naglispa\n//Person Number 2: 50306281\n\npragma solidity ^0.8.0;\n\nimport \"@openzeppelin/contracts/token/ERC721/ERC721.sol\";\n\n/*\ninterface ERC721 {\n\n   event Transfer(address indexed _from, address indexed _to, uint256 indexed _tokenId);\n   event Approval(address indexed _owner, address indexed _approved, uint256 indexed _tokenId);\n   event ApprovalForAll(address indexed _owner, address indexed _operator, bool _approved);\n\n   function balanceOf(address _owner) external view returns (uint256);\n   function ownerOf(uint256 _tokenId) external view returns (address);\n\n   function safeTransferFrom(address _from, address _to, uint256 _tokenId, bytes memory data) external payable;\n   function safeTransferFrom(address _from, address _to, uint256 _tokenId) external payable;\n   function transferFrom(address _from, address _to, uint256 _tokenId) external payable;\n\n   function approve(address _approved, uint256 _tokenId) external payable;\n   function setApprovalForAll(address _operator, bool _approved) external;\n   function getApproved(uint256 _tokenId) external view returns (address);\n   function isApprovedForAll(address _owner, address _operator) external view returns (bool);\n\n}\n\ninterface ERC721Metadata {\n\n    function name() external view returns (string memory _name);\n    function symbol() external view returns (string memory _symbol);\n    function tokenURI(uint256 _tokenId) external view returns (string memory);\n\n}\n*/\n\npragma solidity ^0.8.0;\n\ncontract ITHelpdesk is ERC721(\"CryptoTechSupport\", \"CTS\") {\n\n    enum DeviceType {Laptop, Desktop, Mobile}\n    enum TicketStatus {Open, InProgress, Resolved}\n    enum Difficulty {Easy, Medium, Hard}\n\n    struct Ticket {\n        uint256 id;\n        address user;\n        string title;\n        string issue;\n        string description;\n        bool resolved;\n        Difficulty difficulty;\n        DeviceType deviceType;\n        string solution;\n        string[] notes;\n    }\n\n    uint256 public ticketCount;\n    mapping(uint256 => Ticket) public tickets;\n\n    function fetchTicket(uint256 _ticketId) public view returns (Ticket memory) {\n        return tickets[_ticketId];\n    }\n\n    address payable public contractOwner;\n\n    constructor() {\n        contractOwner = payable(msg.sender);\n    }\n\n    event TicketCreated(uint256 indexed ticketId, string title, string issue, string description, uint8 difficulty, uint8 deviceType);\n\n    function createTicket(string memory _title, string memory _issue, string memory _description, uint8 _difficulty, uint8 _deviceType) public payable returns (uint256) {\n        uint256 paymentAmount = 10**16; // 0.01 ETH\n\n        Ticket memory newTicket = Ticket(ticketCount, msg.sender, _title, _issue, _description, false, Difficulty(_difficulty), DeviceType(_deviceType), \"\", new string[](0));\n        tickets[ticketCount] = newTicket;\n        ticketCount++;\n\n        // Transfer payment to contract owner\n        contractOwner.transfer(paymentAmount);\n\n        uint256 newTicketId = ticketCount - 1;\n\n        emit TicketCreated(newTicketId, _title, _issue, _description, _difficulty, _deviceType);\n        return newTicketId;\n    }\n\n    function updateTicket(uint256 _ticketId, string memory _title, string memory _issue, string memory _description, Difficulty _difficulty, DeviceType _deviceType) public {\n        require(tickets[_ticketId].user == msg.sender, \"Only ticket creator can update ticket\");\n        tickets[_ticketId].title = _title;\n        tickets[_ticketId].issue = _issue;\n        tickets[_ticketId].description = _description;\n        tickets[_ticketId].difficulty = _difficulty;\n        tickets[_ticketId].deviceType = _deviceType;\n    }\n\n    function changeStatus(uint256 _ticketId, bool _resolved) public {\n        require(msg.sender == contractOwner, \"Only contract owner can change ticket status\");\n        require(_ticketId < ticketCount, \"Invalid ticket ID\");\n        tickets[_ticketId].resolved = _resolved;\n    }\n\n    function ticketSolution(uint256 _ticketId, string memory _solution) public {\n        require(tickets[_ticketId].resolved, \"Ticket must be resolved to submit a solution\");\n        require(tickets[_ticketId].user == msg.sender, \"Only ticket creator can submit a solution\");\n        tickets[_ticketId].solution = _solution;\n    }\n\n    function ticketNotes(uint256 _ticketId, string memory _note) public {\n        tickets[_ticketId].notes.push(_note);\n    }\n\n    function resolveTicket(uint256 _ticketId) public {\n        require(tickets[_ticketId].user == msg.sender, \"Only ticket creator can resolve ticket\");\n        require(!tickets[_ticketId].resolved, \"Ticket already resolved\");\n        tickets[_ticketId].resolved = true;\n        payable(msg.sender).transfer(1 ether);\n    }\n\n    function getTicketStatus(uint256 _ticketId) public view returns (bool) {\n        return tickets[_ticketId].resolved;\n    }\n\n    function getTicketDifficulty(uint256 _ticketId) public view returns (Difficulty) {\n        return tickets[_ticketId].difficulty;\n    }\n\n    function getNumberOfTickets() public view returns (uint256) {\n        return ticketCount;\n    }\n}",
  "sourcePath": "/Users/joshuawajnryb/Desktop/BlockchainProject2/CTS-contract/contracts/ITHelpdesk.sol",
  "compiler": {
    "name": "solc",
    "version": "0.8.16+commit.07a7930e.Emscripten.clang"
  },
  "schemaVersion": "3.4.13",
  "updatedAt": "2023-05-06T19:46:39.227Z",
  "networkType": "ethereum",
  "devdoc": {
    "kind": "dev",
    "methods": {
      "approve(address,uint256)": {
        "details": "See {IERC721-approve}."
      },
      "balanceOf(address)": {
        "details": "See {IERC721-balanceOf}."
      },
      "getApproved(uint256)": {
        "details": "See {IERC721-getApproved}."
      },
      "isApprovedForAll(address,address)": {
        "details": "See {IERC721-isApprovedForAll}."
      },
      "name()": {
        "details": "See {IERC721Metadata-name}."
      },
      "ownerOf(uint256)": {
        "details": "See {IERC721-ownerOf}."
      },
      "safeTransferFrom(address,address,uint256)": {
        "details": "See {IERC721-safeTransferFrom}."
      },
      "safeTransferFrom(address,address,uint256,bytes)": {
        "details": "See {IERC721-safeTransferFrom}."
      },
      "setApprovalForAll(address,bool)": {
        "details": "See {IERC721-setApprovalForAll}."
      },
      "supportsInterface(bytes4)": {
        "details": "See {IERC165-supportsInterface}."
      },
      "symbol()": {
        "details": "See {IERC721Metadata-symbol}."
      },
      "tokenURI(uint256)": {
        "details": "See {IERC721Metadata-tokenURI}."
      },
      "transferFrom(address,address,uint256)": {
        "details": "See {IERC721-transferFrom}."
      }
    },
    "version": 1
  },
  "userdoc": {
    "kind": "user",
    "methods": {},
    "version": 1
  }
}