{
  "contractName": "ITHelpdesk",
  "abi": [
    {
      "inputs": [],
      "stateMutability": "nonpayable",
      "type": "constructor"
    },
    {
      "anonymous": false,
      "inputs": [
        {
          "indexed": true,
          "internalType": "address",
          "name": "owner",
          "type": "address"
        },
        {
          "indexed": true,
          "internalType": "address",
          "name": "approved",
          "type": "address"
        },
        {
          "indexed": true,
          "internalType": "uint256",
          "name": "tokenId",
          "type": "uint256"
        }
      ],
      "name": "Approval",
      "type": "event"
    },
    {
      "anonymous": false,
      "inputs": [
        {
          "indexed": true,
          "internalType": "address",
          "name": "owner",
          "type": "address"
        },
        {
          "indexed": true,
          "internalType": "address",
          "name": "operator",
          "type": "address"
        },
        {
          "indexed": false,
          "internalType": "bool",
          "name": "approved",
          "type": "bool"
        }
      ],
      "name": "ApprovalForAll",
      "type": "event"
    },
    {
      "anonymous": false,
      "inputs": [
        {
          "indexed": true,
          "internalType": "uint256",
          "name": "ticketId",
          "type": "uint256"
        },
        {
          "indexed": false,
          "internalType": "string",
          "name": "title",
          "type": "string"
        },
        {
          "indexed": false,
          "internalType": "string",
          "name": "issue",
          "type": "string"
        },
        {
          "indexed": false,
          "internalType": "string",
          "name": "description",
          "type": "string"
        },
        {
          "indexed": false,
          "internalType": "uint8",
          "name": "difficulty",
          "type": "uint8"
        },
        {
          "indexed": false,
          "internalType": "uint8",
          "name": "deviceType",
          "type": "uint8"
        }
      ],
      "name": "TicketCreated",
      "type": "event"
    },
    {
      "anonymous": false,
      "inputs": [
        {
          "indexed": true,
          "internalType": "uint256",
          "name": "ticketId",
          "type": "uint256"
        }
      ],
      "name": "TicketResolved",
      "type": "event"
    },
    {
      "anonymous": false,
      "inputs": [
        {
          "indexed": true,
          "internalType": "address",
          "name": "from",
          "type": "address"
        },
        {
          "indexed": true,
          "internalType": "address",
          "name": "to",
          "type": "address"
        },
        {
          "indexed": true,
          "internalType": "uint256",
          "name": "tokenId",
          "type": "uint256"
        }
      ],
      "name": "Transfer",
      "type": "event"
    },
    {
      "inputs": [
        {
          "internalType": "address",
          "name": "owner",
          "type": "address"
        }
      ],
      "name": "balanceOf",
      "outputs": [
        {
          "internalType": "uint256",
          "name": "",
          "type": "uint256"
        }
      ],
      "stateMutability": "view",
      "type": "function",
      "constant": true
    },
    {
      "inputs": [],
      "name": "contractOwner",
      "outputs": [
        {
          "internalType": "address payable",
          "name": "",
          "type": "address"
        }
      ],
      "stateMutability": "view",
      "type": "function",
      "constant": true
    },
    {
      "inputs": [
        {
          "internalType": "uint256",
          "name": "tokenId",
          "type": "uint256"
        }
      ],
      "name": "getApproved",
      "outputs": [
        {
          "internalType": "address",
          "name": "",
          "type": "address"
        }
      ],
      "stateMutability": "view",
      "type": "function",
      "constant": true
    },
    {
      "inputs": [
        {
          "internalType": "address",
          "name": "owner",
          "type": "address"
        },
        {
          "internalType": "address",
          "name": "operator",
          "type": "address"
        }
      ],
      "name": "isApprovedForAll",
      "outputs": [
        {
          "internalType": "bool",
          "name": "",
          "type": "bool"
        }
      ],
      "stateMutability": "view",
      "type": "function",
      "constant": true
    },
    {
      "inputs": [],
      "name": "name",
      "outputs": [
        {
          "internalType": "string",
          "name": "",
          "type": "string"
        }
      ],
      "stateMutability": "view",
      "type": "function",
      "constant": true
    },
    {
      "inputs": [
        {
          "internalType": "uint256",
          "name": "tokenId",
          "type": "uint256"
        }
      ],
      "name": "ownerOf",
      "outputs": [
        {
          "internalType": "address",
          "name": "",
          "type": "address"
        }
      ],
      "stateMutability": "view",
      "type": "function",
      "constant": true
    },
    {
      "inputs": [
        {
          "internalType": "address",
          "name": "operator",
          "type": "address"
        },
        {
          "internalType": "bool",
          "name": "approved",
          "type": "bool"
        }
      ],
      "name": "setApprovalForAll",
      "outputs": [],
      "stateMutability": "nonpayable",
      "type": "function"
    },
    {
      "inputs": [
        {
          "internalType": "bytes4",
          "name": "interfaceId",
          "type": "bytes4"
        }
      ],
      "name": "supportsInterface",
      "outputs": [
        {
          "internalType": "bool",
          "name": "",
          "type": "bool"
        }
      ],
      "stateMutability": "view",
      "type": "function",
      "constant": true
    },
    {
      "inputs": [],
      "name": "symbol",
      "outputs": [
        {
          "internalType": "string",
          "name": "",
          "type": "string"
        }
      ],
      "stateMutability": "view",
      "type": "function",
      "constant": true
    },
    {
      "inputs": [],
      "name": "ticketCount",
      "outputs": [
        {
          "internalType": "uint256",
          "name": "",
          "type": "uint256"
        }
      ],
      "stateMutability": "view",
      "type": "function",
      "constant": true
    },
    {
      "inputs": [
        {
          "internalType": "uint256",
          "name": "",
          "type": "uint256"
        }
      ],
      "name": "tickets",
      "outputs": [
        {
          "internalType": "uint256",
          "name": "id",
          "type": "uint256"
        },
        {
          "internalType": "address",
          "name": "user",
          "type": "address"
        },
        {
          "internalType": "string",
          "name": "title",
          "type": "string"
        },
        {
          "internalType": "string",
          "name": "issue",
          "type": "string"
        },
        {
          "internalType": "string",
          "name": "description",
          "type": "string"
        },
        {
          "internalType": "bool",
          "name": "resolved",
          "type": "bool"
        },
        {
          "internalType": "enum ITHelpdesk.Difficulty",
          "name": "difficulty",
          "type": "uint8"
        },
        {
          "internalType": "enum ITHelpdesk.DeviceType",
          "name": "deviceType",
          "type": "uint8"
        },
        {
          "internalType": "string",
          "name": "solution",
          "type": "string"
        }
      ],
      "stateMutability": "view",
      "type": "function",
      "constant": true
    },
    {
      "inputs": [
        {
          "internalType": "uint256",
          "name": "tokenId",
          "type": "uint256"
        }
      ],
      "name": "tokenURI",
      "outputs": [
        {
          "internalType": "string",
          "name": "",
          "type": "string"
        }
      ],
      "stateMutability": "view",
      "type": "function",
      "constant": true
    },
    {
      "inputs": [
        {
          "internalType": "address",
          "name": "from",
          "type": "address"
        },
        {
          "internalType": "address",
          "name": "to",
          "type": "address"
        },
        {
          "internalType": "uint256",
          "name": "tokenId",
          "type": "uint256"
        }
      ],
      "name": "transferFrom",
      "outputs": [],
      "stateMutability": "nonpayable",
      "type": "function"
    },
    {
      "inputs": [
        {
          "internalType": "string",
          "name": "_title",
          "type": "string"
        },
        {
          "internalType": "string",
          "name": "_issue",
          "type": "string"
        },
        {
          "internalType": "string",
          "name": "_description",
          "type": "string"
        },
        {
          "internalType": "uint8",
          "name": "_difficulty",
          "type": "uint8"
        },
        {
          "internalType": "uint8",
          "name": "_deviceType",
          "type": "uint8"
        }
      ],
      "name": "createTicket",
      "outputs": [
        {
          "internalType": "uint256",
          "name": "",
          "type": "uint256"
        }
      ],
      "stateMutability": "payable",
      "type": "function",
      "payable": true
    },
    {
      "inputs": [
        {
          "internalType": "uint256",
          "name": "_ticketId",
          "type": "uint256"
        },
        {
          "internalType": "string",
          "name": "_title",
          "type": "string"
        },
        {
          "internalType": "string",
          "name": "_issue",
          "type": "string"
        },
        {
          "internalType": "string",
          "name": "_description",
          "type": "string"
        },
        {
          "internalType": "enum ITHelpdesk.Difficulty",
          "name": "_difficulty",
          "type": "uint8"
        },
        {
          "internalType": "enum ITHelpdesk.DeviceType",
          "name": "_deviceType",
          "type": "uint8"
        }
      ],
      "name": "updateTicket",
      "outputs": [],
      "stateMutability": "nonpayable",
      "type": "function"
    },
    {
      "inputs": [
        {
          "internalType": "uint256",
          "name": "_ticketId",
          "type": "uint256"
        },
        {
          "internalType": "enum ITHelpdesk.TicketStatus",
          "name": "_status",
          "type": "uint8"
        }
      ],
      "name": "changeStatus",
      "outputs": [],
      "stateMutability": "nonpayable",
      "type": "function"
    },
    {
      "inputs": [
        {
          "internalType": "uint256",
          "name": "_ticketId",
          "type": "uint256"
        },
        {
          "internalType": "string",
          "name": "_solution",
          "type": "string"
        }
      ],
      "name": "ticketSolution",
      "outputs": [],
      "stateMutability": "nonpayable",
      "type": "function"
    },
    {
      "inputs": [
        {
          "internalType": "uint256",
          "name": "_ticketId",
          "type": "uint256"
        },
        {
          "internalType": "string",
          "name": "_note",
          "type": "string"
        }
      ],
      "name": "ticketNotes",
      "outputs": [],
      "stateMutability": "nonpayable",
      "type": "function"
    },
    {
      "inputs": [
        {
          "internalType": "uint256",
          "name": "_ticketId",
          "type": "uint256"
        }
      ],
      "name": "resolveTicket",
      "outputs": [],
      "stateMutability": "nonpayable",
      "type": "function"
    },
    {
      "inputs": [
        {
          "internalType": "uint256",
          "name": "_ticketId",
          "type": "uint256"
        }
      ],
      "name": "fetchTicket",
      "outputs": [
        {
          "components": [
            {
              "internalType": "uint256",
              "name": "id",
              "type": "uint256"
            },
            {
              "internalType": "address",
              "name": "user",
              "type": "address"
            },
            {
              "internalType": "string",
              "name": "title",
              "type": "string"
            },
            {
              "internalType": "string",
              "name": "issue",
              "type": "string"
            },
            {
              "internalType": "string",
              "name": "description",
              "type": "string"
            },
            {
              "internalType": "bool",
              "name": "resolved",
              "type": "bool"
            },
            {
              "internalType": "enum ITHelpdesk.Difficulty",
              "name": "difficulty",
              "type": "uint8"
            },
            {
              "internalType": "enum ITHelpdesk.DeviceType",
              "name": "deviceType",
              "type": "uint8"
            },
            {
              "internalType": "string",
              "name": "solution",
              "type": "string"
            },
            {
              "internalType": "string[]",
              "name": "notes",
              "type": "string[]"
            }
          ],
          "internalType": "struct ITHelpdesk.Ticket",
          "name": "",
          "type": "tuple"
        }
      ],
      "stateMutability": "view",
      "type": "function",
      "constant": true
    },
    {
      "inputs": [
        {
          "internalType": "uint256",
          "name": "_ticketId",
          "type": "uint256"
        }
      ],
      "name": "getTicketStatus",
      "outputs": [
        {
          "internalType": "bool",
          "name": "",
          "type": "bool"
        }
      ],
      "stateMutability": "view",
      "type": "function",
      "constant": true
    },
    {
      "inputs": [
        {
          "internalType": "uint256",
          "name": "_ticketId",
          "type": "uint256"
        }
      ],
      "name": "getTicketDifficulty",
      "outputs": [
        {
          "internalType": "enum ITHelpdesk.Difficulty",
          "name": "",
          "type": "uint8"
        }
      ],
      "stateMutability": "view",
      "type": "function",
      "constant": true
    },
    {
      "inputs": [],
      "name": "getNumberOfTickets",
      "outputs": [
        {
          "internalType": "uint256",
          "name": "",
          "type": "uint256"
        }
      ],
      "stateMutability": "view",
      "type": "function",
      "constant": true
    },
    {
      "inputs": [
        {
          "internalType": "address",
          "name": "to",
          "type": "address"
        },
        {
          "internalType": "uint256",
          "name": "tokenId",
          "type": "uint256"
        }
      ],
      "name": "approve",
      "outputs": [],
      "stateMutability": "nonpayable",
      "type": "function"
    },
    {
      "inputs": [
        {
          "internalType": "address",
          "name": "from",
          "type": "address"
        },
        {
          "internalType": "address",
          "name": "to",
          "type": "address"
        },
        {
          "internalType": "uint256",
          "name": "tokenId",
          "type": "uint256"
        }
      ],
      "name": "safeTransferFrom",
      "outputs": [],
      "stateMutability": "nonpayable",
      "type": "function"
    },
    {
      "inputs": [
        {
          "internalType": "address",
          "name": "from",
          "type": "address"
        },
        {
          "internalType": "address",
          "name": "to",
          "type": "address"
        },
        {
          "internalType": "uint256",
          "name": "tokenId",
          "type": "uint256"
        },
        {
          "internalType": "bytes",
          "name": "_data",
          "type": "bytes"
        }
      ],
      "name": "safeTransferFrom",
      "outputs": [],
      "stateMutability": "nonpayable",
      "type": "function"
    }
  ],
  "bytecode": "0x60806040523480156200001157600080fd5b506040518060400160405280601181526020017f43727970746f54656368537570706f72740000000000000000000000000000008152506040518060400160405280600381526020017f435453000000000000000000000000000000000000000000000000000000000081525081600090816200008f919062000365565b508060019081620000a1919062000365565b50505033600860006101000a81548173ffffffffffffffffffffffffffffffffffffffff021916908373ffffffffffffffffffffffffffffffffffffffff1602179055506200044c565b600081519050919050565b7f4e487b7100000000000000000000000000000000000000000000000000000000600052604160045260246000fd5b7f4e487b7100000000000000000000000000000000000000000000000000000000600052602260045260246000fd5b600060028204905060018216806200016d57607f821691505b60208210810362000183576200018262000125565b5b50919050565b60008190508160005260206000209050919050565b60006020601f8301049050919050565b600082821b905092915050565b600060088302620001ed7fffffffffffffffffffffffffffffffffffffffffffffffffffffffffffffffff82620001ae565b620001f98683620001ae565b95508019841693508086168417925050509392505050565b6000819050919050565b6000819050919050565b600062000246620002406200023a8462000211565b6200021b565b62000211565b9050919050565b6000819050919050565b620002628362000225565b6200027a62000271826200024d565b848454620001bb565b825550505050565b600090565b6200029162000282565b6200029e81848462000257565b505050565b5b81811015620002c657620002ba60008262000287565b600181019050620002a4565b5050565b601f8211156200031557620002df8162000189565b620002ea846200019e565b81016020851015620002fa578190505b6200031262000309856200019e565b830182620002a3565b50505b505050565b600082821c905092915050565b60006200033a600019846008026200031a565b1980831691505092915050565b600062000355838362000327565b9150826002028217905092915050565b6200037082620000eb565b67ffffffffffffffff8111156200038c576200038b620000f6565b5b62000398825462000154565b620003a5828285620002ca565b600060209050601f831160018114620003dd5760008415620003c8578287015190505b620003d4858262000347565b86555062000444565b601f198416620003ed8662000189565b60005b828110156200041757848901518255600182019150602085019450602081019050620003f0565b8683101562000437578489015162000433601f89168262000327565b8355505b6001600288020188555050505b505050505050565b614af2806200045c6000396000f3fe6080604052600436106101815760003560e01c806395d89b41116100d1578063ce606ee01161008a578063e23e114811610064578063e23e1148146105c5578063e985e9c5146105ee578063f893a4291461062b578063fb87774c1461065457610181565b8063ce606ee01461053f578063cfbd900f1461056a578063d0018b611461059557610181565b806395d89b411461041f578063a22cb4651461044a578063b88d4fde14610473578063bacc10ae1461049c578063c5a8a2ab146104d9578063c87b56dd1461050257610181565b806345d8c7861161013e5780636352211e116101185780636352211e146103515780636b9d27381461038e57806370a08231146103b75780639582260a146103f457610181565b806345d8c786146102a657806350b44712146102cf5780635105d5261461031457610181565b806301ffc9a71461018657806306fdde03146101c3578063081812fc146101ee578063095ea7b31461022b57806323b872dd1461025457806342842e0e1461027d575b600080fd5b34801561019257600080fd5b506101ad60048036038101906101a89190612db5565b610691565b6040516101ba9190612dfd565b60405180910390f35b3480156101cf57600080fd5b506101d8610773565b6040516101e59190612ea8565b60405180910390f35b3480156101fa57600080fd5b5061021560048036038101906102109190612f00565b610805565b6040516102229190612f6e565b60405180910390f35b34801561023757600080fd5b50610252600480360381019061024d9190612fb5565b61084b565b005b34801561026057600080fd5b5061027b60048036038101906102769190612ff5565b6108bd565b005b34801561028957600080fd5b506102a4600480360381019061029f9190612ff5565b61091d565b005b3480156102b257600080fd5b506102cd60048036038101906102c89190612f00565b610a57565b005b3480156102db57600080fd5b506102f660048036038101906102f19190612f00565b610c0c565b60405161030b99989796959493929190613116565b60405180910390f35b34801561032057600080fd5b5061033b60048036038101906103369190612f00565b610ec1565b604051610348919061340c565b60405180910390f35b34801561035d57600080fd5b5061037860048036038101906103739190612f00565b611301565b6040516103859190612f6e565b60405180910390f35b34801561039a57600080fd5b506103b560048036038101906103b09190613563565b611387565b005b3480156103c357600080fd5b506103de60048036038101906103d991906135bf565b6113af565b6040516103eb91906135ec565b60405180910390f35b34801561040057600080fd5b50610409611466565b60405161041691906135ec565b60405180910390f35b34801561042b57600080fd5b50610434611470565b6040516104419190612ea8565b60405180910390f35b34801561045657600080fd5b50610471600480360381019061046c9190613633565b611502565b005b34801561047f57600080fd5b5061049a60048036038101906104959190613714565b611518565b005b3480156104a857600080fd5b506104c360048036038101906104be9190612f00565b61158e565b6040516104d09190613797565b60405180910390f35b3480156104e557600080fd5b5061050060048036038101906104fb91906137d7565b6115bb565b005b34801561050e57600080fd5b5061052960048036038101906105249190612f00565b6116e7565b6040516105369190612ea8565b60405180910390f35b34801561054b57600080fd5b5061055461174f565b6040516105619190613838565b60405180910390f35b34801561057657600080fd5b5061057f611775565b60405161058c91906135ec565b60405180910390f35b6105af60048036038101906105aa919061388c565b61177b565b6040516105bc91906135ec565b60405180910390f35b3480156105d157600080fd5b506105ec60048036038101906105e791906139a5565b611a70565b005b3480156105fa57600080fd5b5061061560048036038101906106109190613a86565b611c04565b6040516106229190612dfd565b60405180910390f35b34801561063757600080fd5b50610652600480360381019061064d9190613563565b611c98565b005b34801561066057600080fd5b5061067b60048036038101906106769190612f00565b611ce5565b6040516106889190612dfd565b60405180910390f35b60007f80ac58cd000000000000000000000000000000000000000000000000000000007bffffffffffffffffffffffffffffffffffffffffffffffffffffffff1916827bffffffffffffffffffffffffffffffffffffffffffffffffffffffff1916148061075c57507f5b5e139f000000000000000000000000000000000000000000000000000000007bffffffffffffffffffffffffffffffffffffffffffffffffffffffff1916827bffffffffffffffffffffffffffffffffffffffffffffffffffffffff1916145b8061076c575061076b82611d12565b5b9050919050565b60606000805461078290613af5565b80601f01602080910402602001604051908101604052809291908181526020018280546107ae90613af5565b80156107fb5780601f106107d0576101008083540402835291602001916107fb565b820191906000526020600020905b8154815290600101906020018083116107de57829003601f168201915b5050505050905090565b600061081082611d7c565b6004600083815260200190815260200160002060009054906101000a900473ffffffffffffffffffffffffffffffffffffffff169050919050565b6007600082815260200190815260200160002060050160009054906101000a900460ff16156108af576040517f08c379a00000000000000000000000000000000000000000000000000000000081526004016108a690613b98565b60405180910390fd5b6108b98282611dc7565b5050565b6108ce6108c8611ede565b82611ee6565b61090d576040517f08c379a000000000000000000000000000000000000000000000000000000000815260040161090490613c2a565b60405180910390fd5b610918838383611f7b565b505050565b8273ffffffffffffffffffffffffffffffffffffffff1661093d82611301565b73ffffffffffffffffffffffffffffffffffffffff1614610993576040517f08c379a000000000000000000000000000000000000000000000000000000000815260040161098a90613cbc565b60405180910390fd5b6109a461099e611ede565b82611ee6565b6109e3576040517f08c379a00000000000000000000000000000000000000000000000000000000081526004016109da90613d4e565b60405180910390fd5b6007600082815260200190815260200160002060050160009054906101000a900460ff1615610a47576040517f08c379a0000000000000000000000000000000000000000000000000000000008152600401610a3e90613de0565b60405180910390fd5b610a52838383611f7b565b505050565b3373ffffffffffffffffffffffffffffffffffffffff166007600083815260200190815260200160002060010160009054906101000a900473ffffffffffffffffffffffffffffffffffffffff1673ffffffffffffffffffffffffffffffffffffffff1614610afb576040517f08c379a0000000000000000000000000000000000000000000000000000000008152600401610af290613e72565b60405180910390fd5b6007600082815260200190815260200160002060050160009054906101000a900460ff1615610b5f576040517f08c379a0000000000000000000000000000000000000000000000000000000008152600401610b5690613ede565b60405180910390fd5b60016007600083815260200190815260200160002060050160006101000a81548160ff0219169083151502179055503373ffffffffffffffffffffffffffffffffffffffff166108fc662386f26fc100009081150290604051600060405180830381858888f19350505050158015610bdb573d6000803e3d6000fd5b50807fb490f1ec17da93882283ddc104a23e4f0a4528f77143cd834b3dd8b148f9de5460405160405180910390a250565b60076020528060005260406000206000915090508060000154908060010160009054906101000a900473ffffffffffffffffffffffffffffffffffffffff1690806002018054610c5b90613af5565b80601f0160208091040260200160405190810160405280929190818152602001828054610c8790613af5565b8015610cd45780601f10610ca957610100808354040283529160200191610cd4565b820191906000526020600020905b815481529060010190602001808311610cb757829003601f168201915b505050505090806003018054610ce990613af5565b80601f0160208091040260200160405190810160405280929190818152602001828054610d1590613af5565b8015610d625780601f10610d3757610100808354040283529160200191610d62565b820191906000526020600020905b815481529060010190602001808311610d4557829003601f168201915b505050505090806004018054610d7790613af5565b80601f0160208091040260200160405190810160405280929190818152602001828054610da390613af5565b8015610df05780601f10610dc557610100808354040283529160200191610df0565b820191906000526020600020905b815481529060010190602001808311610dd357829003601f168201915b5050505050908060050160009054906101000a900460ff16908060050160019054906101000a900460ff16908060050160029054906101000a900460ff1690806006018054610e3e90613af5565b80601f0160208091040260200160405190810160405280929190818152602001828054610e6a90613af5565b8015610eb75780601f10610e8c57610100808354040283529160200191610eb7565b820191906000526020600020905b815481529060010190602001808311610e9a57829003601f168201915b5050505050905089565b610ec9612be0565b6007600083815260200190815260200160002060405180610140016040529081600082015481526020016001820160009054906101000a900473ffffffffffffffffffffffffffffffffffffffff1673ffffffffffffffffffffffffffffffffffffffff1673ffffffffffffffffffffffffffffffffffffffff168152602001600282018054610f5890613af5565b80601f0160208091040260200160405190810160405280929190818152602001828054610f8490613af5565b8015610fd15780601f10610fa657610100808354040283529160200191610fd1565b820191906000526020600020905b815481529060010190602001808311610fb457829003601f168201915b50505050508152602001600382018054610fea90613af5565b80601f016020809104026020016040519081016040528092919081815260200182805461101690613af5565b80156110635780601f1061103857610100808354040283529160200191611063565b820191906000526020600020905b81548152906001019060200180831161104657829003601f168201915b5050505050815260200160048201805461107c90613af5565b80601f01602080910402602001604051908101604052809291908181526020018280546110a890613af5565b80156110f55780601f106110ca576101008083540402835291602001916110f5565b820191906000526020600020905b8154815290600101906020018083116110d857829003601f168201915b505050505081526020016005820160009054906101000a900460ff161515151581526020016005820160019054906101000a900460ff16600281111561113e5761113d613057565b5b60028111156111505761114f613057565b5b81526020016005820160029054906101000a900460ff16600281111561117957611178613057565b5b600281111561118b5761118a613057565b5b815260200160068201805461119f90613af5565b80601f01602080910402602001604051908101604052809291908181526020018280546111cb90613af5565b80156112185780601f106111ed57610100808354040283529160200191611218565b820191906000526020600020905b8154815290600101906020018083116111fb57829003601f168201915b5050505050815260200160078201805480602002602001604051908101604052809291908181526020016000905b828210156112f257838290600052602060002001805461126590613af5565b80601f016020809104026020016040519081016040528092919081815260200182805461129190613af5565b80156112de5780601f106112b3576101008083540402835291602001916112de565b820191906000526020600020905b8154815290600101906020018083116112c157829003601f168201915b505050505081526020019060010190611246565b50505050815250509050919050565b60008061130d83612274565b9050600073ffffffffffffffffffffffffffffffffffffffff168173ffffffffffffffffffffffffffffffffffffffff160361137e576040517f08c379a000000000000000000000000000000000000000000000000000000000815260040161137590613f4a565b60405180910390fd5b80915050919050565b806007600084815260200190815260200160002060060190816113aa9190614116565b505050565b60008073ffffffffffffffffffffffffffffffffffffffff168273ffffffffffffffffffffffffffffffffffffffff160361141f576040517f08c379a00000000000000000000000000000000000000000000000000000000081526004016114169061425a565b60405180910390fd5b600360008373ffffffffffffffffffffffffffffffffffffffff1673ffffffffffffffffffffffffffffffffffffffff168152602001908152602001600020549050919050565b6000600654905090565b60606001805461147f90613af5565b80601f01602080910402602001604051908101604052809291908181526020018280546114ab90613af5565b80156114f85780601f106114cd576101008083540402835291602001916114f8565b820191906000526020600020905b8154815290600101906020018083116114db57829003601f168201915b5050505050905090565b61151461150d611ede565b83836122b1565b5050565b6007600083815260200190815260200160002060050160009054906101000a900460ff161561157c576040517f08c379a000000000000000000000000000000000000000000000000000000000815260040161157390613de0565b60405180910390fd5b6115888484848461241d565b50505050565b60006007600083815260200190815260200160002060050160019054906101000a900460ff169050919050565b600860009054906101000a900473ffffffffffffffffffffffffffffffffffffffff1673ffffffffffffffffffffffffffffffffffffffff163373ffffffffffffffffffffffffffffffffffffffff161461164b576040517f08c379a0000000000000000000000000000000000000000000000000000000008152600401611642906142ec565b60405180910390fd5b600654821061168f576040517f08c379a000000000000000000000000000000000000000000000000000000000815260040161168690614358565b60405180910390fd5b6002808111156116a2576116a1613057565b5b8160028111156116b5576116b4613057565b5b146007600084815260200190815260200160002060050160006101000a81548160ff0219169083151502179055505050565b60606116f282611d7c565b60006116fc61247f565b9050600081511161171c5760405180602001604052806000815250611747565b8061172684612496565b6040516020016117379291906143b4565b6040516020818303038152906040525b915050919050565b600860009054906101000a900473ffffffffffffffffffffffffffffffffffffffff1681565b60065481565b60008060405180610140016040528060065481526020013373ffffffffffffffffffffffffffffffffffffffff1681526020018881526020018781526020018681526020016000151581526020018560ff1660028111156117df576117de613057565b5b60028111156117f1576117f0613057565b5b81526020018460ff16600281111561180c5761180b613057565b5b600281111561181e5761181d613057565b5b8152602001604051806020016040528060008152508152602001600067ffffffffffffffff81111561185357611852613438565b5b60405190808252806020026020018201604052801561188657816020015b60608152602001906001900390816118715790505b508152509050806007600060065481526020019081526020016000206000820151816000015560208201518160010160006101000a81548173ffffffffffffffffffffffffffffffffffffffff021916908373ffffffffffffffffffffffffffffffffffffffff16021790555060408201518160020190816119089190614116565b50606082015181600301908161191e9190614116565b5060808201518160040190816119349190614116565b5060a08201518160050160006101000a81548160ff02191690831515021790555060c08201518160050160016101000a81548160ff021916908360028111156119805761197f613057565b5b021790555060e08201518160050160026101000a81548160ff021916908360028111156119b0576119af613057565b5b02179055506101008201518160060190816119cb9190614116565b506101208201518160070190805190602001906119e9929190612c6f565b5090505060066000815480929190611a0090614407565b919050555060006001600654611a16919061444f565b9050611a223382612564565b807f8250b7e61eb7eb379d1cb8d82f43cbda010eb85086cf878c2598dabfee0c8c558989898989604051611a5a959493929190614492565b60405180910390a2809250505095945050505050565b3373ffffffffffffffffffffffffffffffffffffffff166007600088815260200190815260200160002060010160009054906101000a900473ffffffffffffffffffffffffffffffffffffffff1673ffffffffffffffffffffffffffffffffffffffff1614611b14576040517f08c379a0000000000000000000000000000000000000000000000000000000008152600401611b0b9061456c565b60405180910390fd5b84600760008881526020019081526020016000206002019081611b379190614116565b5083600760008881526020019081526020016000206003019081611b5b9190614116565b5082600760008881526020019081526020016000206004019081611b7f9190614116565b50816007600088815260200190815260200160002060050160016101000a81548160ff02191690836002811115611bb957611bb8613057565b5b0217905550806007600088815260200190815260200160002060050160026101000a81548160ff02191690836002811115611bf757611bf6613057565b5b0217905550505050505050565b6000600560008473ffffffffffffffffffffffffffffffffffffffff1673ffffffffffffffffffffffffffffffffffffffff16815260200190815260200160002060008373ffffffffffffffffffffffffffffffffffffffff1673ffffffffffffffffffffffffffffffffffffffff16815260200190815260200160002060009054906101000a900460ff16905092915050565b6007600083815260200190815260200160002060070181908060018154018082558091505060019003906000526020600020016000909190919091509081611ce09190614116565b505050565b60006007600083815260200190815260200160002060050160009054906101000a900460ff169050919050565b60007f01ffc9a7000000000000000000000000000000000000000000000000000000007bffffffffffffffffffffffffffffffffffffffffffffffffffffffff1916827bffffffffffffffffffffffffffffffffffffffffffffffffffffffff1916149050919050565b611d8581612781565b611dc4576040517f08c379a0000000000000000000000000000000000000000000000000000000008152600401611dbb90613f4a565b60405180910390fd5b50565b6000611dd282611301565b90508073ffffffffffffffffffffffffffffffffffffffff168373ffffffffffffffffffffffffffffffffffffffff1603611e42576040517f08c379a0000000000000000000000000000000000000000000000000000000008152600401611e39906145fe565b60405180910390fd5b8073ffffffffffffffffffffffffffffffffffffffff16611e61611ede565b73ffffffffffffffffffffffffffffffffffffffff161480611e905750611e8f81611e8a611ede565b611c04565b5b611ecf576040517f08c379a0000000000000000000000000000000000000000000000000000000008152600401611ec690614690565b60405180910390fd5b611ed983836127c2565b505050565b600033905090565b600080611ef283611301565b90508073ffffffffffffffffffffffffffffffffffffffff168473ffffffffffffffffffffffffffffffffffffffff161480611f345750611f338185611c04565b5b80611f7257508373ffffffffffffffffffffffffffffffffffffffff16611f5a84610805565b73ffffffffffffffffffffffffffffffffffffffff16145b91505092915050565b8273ffffffffffffffffffffffffffffffffffffffff16611f9b82611301565b73ffffffffffffffffffffffffffffffffffffffff1614611ff1576040517f08c379a0000000000000000000000000000000000000000000000000000000008152600401611fe890614722565b60405180910390fd5b600073ffffffffffffffffffffffffffffffffffffffff168273ffffffffffffffffffffffffffffffffffffffff1603612060576040517f08c379a0000000000000000000000000000000000000000000000000000000008152600401612057906147b4565b60405180910390fd5b61206d838383600161287b565b8273ffffffffffffffffffffffffffffffffffffffff1661208d82611301565b73ffffffffffffffffffffffffffffffffffffffff16146120e3576040517f08c379a00000000000000000000000000000000000000000000000000000000081526004016120da90614722565b60405180910390fd5b6004600082815260200190815260200160002060006101000a81549073ffffffffffffffffffffffffffffffffffffffff02191690556001600360008573ffffffffffffffffffffffffffffffffffffffff1673ffffffffffffffffffffffffffffffffffffffff168152602001908152602001600020600082825403925050819055506001600360008473ffffffffffffffffffffffffffffffffffffffff1673ffffffffffffffffffffffffffffffffffffffff16815260200190815260200160002060008282540192505081905550816002600083815260200190815260200160002060006101000a81548173ffffffffffffffffffffffffffffffffffffffff021916908373ffffffffffffffffffffffffffffffffffffffff160217905550808273ffffffffffffffffffffffffffffffffffffffff168473ffffffffffffffffffffffffffffffffffffffff167fddf252ad1be2c89b69c2b068fc378daa952ba7f163c4a11628f55a4df523b3ef60405160405180910390a461226f8383836001612881565b505050565b60006002600083815260200190815260200160002060009054906101000a900473ffffffffffffffffffffffffffffffffffffffff169050919050565b8173ffffffffffffffffffffffffffffffffffffffff168373ffffffffffffffffffffffffffffffffffffffff160361231f576040517f08c379a000000000000000000000000000000000000000000000000000000000815260040161231690614820565b60405180910390fd5b80600560008573ffffffffffffffffffffffffffffffffffffffff1673ffffffffffffffffffffffffffffffffffffffff16815260200190815260200160002060008473ffffffffffffffffffffffffffffffffffffffff1673ffffffffffffffffffffffffffffffffffffffff16815260200190815260200160002060006101000a81548160ff0219169083151502179055508173ffffffffffffffffffffffffffffffffffffffff168373ffffffffffffffffffffffffffffffffffffffff167f17307eab39ab6107e8899845ad3d59bd9653f200f220920489ca2b5937696c31836040516124109190612dfd565b60405180910390a3505050565b61242e612428611ede565b83611ee6565b61246d576040517f08c379a000000000000000000000000000000000000000000000000000000000815260040161246490613c2a565b60405180910390fd5b61247984848484612887565b50505050565b606060405180602001604052806000815250905090565b6060600060016124a5846128e3565b01905060008167ffffffffffffffff8111156124c4576124c3613438565b5b6040519080825280601f01601f1916602001820160405280156124f65781602001600182028036833780820191505090505b509050600082602001820190505b600115612559578080600190039150507f3031323334353637383961626364656600000000000000000000000000000000600a86061a8153600a858161254d5761254c614840565b5b04945060008503612504575b819350505050919050565b600073ffffffffffffffffffffffffffffffffffffffff168273ffffffffffffffffffffffffffffffffffffffff16036125d3576040517f08c379a00000000000000000000000000000000000000000000000000000000081526004016125ca906148bb565b60405180910390fd5b6125dc81612781565b1561261c576040517f08c379a000000000000000000000000000000000000000000000000000000000815260040161261390614927565b60405180910390fd5b61262a60008383600161287b565b61263381612781565b15612673576040517f08c379a000000000000000000000000000000000000000000000000000000000815260040161266a90614927565b60405180910390fd5b6001600360008473ffffffffffffffffffffffffffffffffffffffff1673ffffffffffffffffffffffffffffffffffffffff16815260200190815260200160002060008282540192505081905550816002600083815260200190815260200160002060006101000a81548173ffffffffffffffffffffffffffffffffffffffff021916908373ffffffffffffffffffffffffffffffffffffffff160217905550808273ffffffffffffffffffffffffffffffffffffffff16600073ffffffffffffffffffffffffffffffffffffffff167fddf252ad1be2c89b69c2b068fc378daa952ba7f163c4a11628f55a4df523b3ef60405160405180910390a461277d600083836001612881565b5050565b60008073ffffffffffffffffffffffffffffffffffffffff166127a383612274565b73ffffffffffffffffffffffffffffffffffffffff1614159050919050565b816004600083815260200190815260200160002060006101000a81548173ffffffffffffffffffffffffffffffffffffffff021916908373ffffffffffffffffffffffffffffffffffffffff160217905550808273ffffffffffffffffffffffffffffffffffffffff1661283583611301565b73ffffffffffffffffffffffffffffffffffffffff167f8c5be1e5ebec7d5bd14f71427d1e84f3dd0314c0f7b2291e5b200ac8c7c3b92560405160405180910390a45050565b50505050565b50505050565b612892848484611f7b565b61289e84848484612a36565b6128dd576040517f08c379a00000000000000000000000000000000000000000000000000000000081526004016128d4906149b9565b60405180910390fd5b50505050565b600080600090507a184f03e93ff9f4daa797ed6e38ed64bf6a1f0100000000000000008310612941577a184f03e93ff9f4daa797ed6e38ed64bf6a1f010000000000000000838161293757612936614840565b5b0492506040810190505b6d04ee2d6d415b85acef8100000000831061297e576d04ee2d6d415b85acef8100000000838161297457612973614840565b5b0492506020810190505b662386f26fc1000083106129ad57662386f26fc1000083816129a3576129a2614840565b5b0492506010810190505b6305f5e10083106129d6576305f5e10083816129cc576129cb614840565b5b0492506008810190505b61271083106129fb5761271083816129f1576129f0614840565b5b0492506004810190505b60648310612a1e5760648381612a1457612a13614840565b5b0492506002810190505b600a8310612a2d576001810190505b80915050919050565b6000612a578473ffffffffffffffffffffffffffffffffffffffff16612bbd565b15612bb0578373ffffffffffffffffffffffffffffffffffffffff1663150b7a02612a80611ede565b8786866040518563ffffffff1660e01b8152600401612aa29493929190614a2e565b6020604051808303816000875af1925050508015612ade57506040513d601f19601f82011682018060405250810190612adb9190614a8f565b60015b612b60573d8060008114612b0e576040519150601f19603f3d011682016040523d82523d6000602084013e612b13565b606091505b506000815103612b58576040517f08c379a0000000000000000000000000000000000000000000000000000000008152600401612b4f906149b9565b60405180910390fd5b805181602001fd5b63150b7a0260e01b7bffffffffffffffffffffffffffffffffffffffffffffffffffffffff1916817bffffffffffffffffffffffffffffffffffffffffffffffffffffffff191614915050612bb5565b600190505b949350505050565b6000808273ffffffffffffffffffffffffffffffffffffffff163b119050919050565b60405180610140016040528060008152602001600073ffffffffffffffffffffffffffffffffffffffff16815260200160608152602001606081526020016060815260200160001515815260200160006002811115612c4257612c41613057565b5b815260200160006002811115612c5b57612c5a613057565b5b815260200160608152602001606081525090565b828054828255906000526020600020908101928215612cb7579160200282015b82811115612cb6578251829081612ca69190614116565b5091602001919060010190612c8f565b5b509050612cc49190612cc8565b5090565b5b80821115612ce85760008181612cdf9190612cec565b50600101612cc9565b5090565b508054612cf890613af5565b6000825580601f10612d0a5750612d29565b601f016020900490600052602060002090810190612d289190612d2c565b5b50565b5b80821115612d45576000816000905550600101612d2d565b5090565b6000604051905090565b600080fd5b600080fd5b60007fffffffff0000000000000000000000000000000000000000000000000000000082169050919050565b612d9281612d5d565b8114612d9d57600080fd5b50565b600081359050612daf81612d89565b92915050565b600060208284031215612dcb57612dca612d53565b5b6000612dd984828501612da0565b91505092915050565b60008115159050919050565b612df781612de2565b82525050565b6000602082019050612e126000830184612dee565b92915050565b600081519050919050565b600082825260208201905092915050565b60005b83811015612e52578082015181840152602081019050612e37565b60008484015250505050565b6000601f19601f8301169050919050565b6000612e7a82612e18565b612e848185612e23565b9350612e94818560208601612e34565b612e9d81612e5e565b840191505092915050565b60006020820190508181036000830152612ec28184612e6f565b905092915050565b6000819050919050565b612edd81612eca565b8114612ee857600080fd5b50565b600081359050612efa81612ed4565b92915050565b600060208284031215612f1657612f15612d53565b5b6000612f2484828501612eeb565b91505092915050565b600073ffffffffffffffffffffffffffffffffffffffff82169050919050565b6000612f5882612f2d565b9050919050565b612f6881612f4d565b82525050565b6000602082019050612f836000830184612f5f565b92915050565b612f9281612f4d565b8114612f9d57600080fd5b50565b600081359050612faf81612f89565b92915050565b60008060408385031215612fcc57612fcb612d53565b5b6000612fda85828601612fa0565b9250506020612feb85828601612eeb565b9150509250929050565b60008060006060848603121561300e5761300d612d53565b5b600061301c86828701612fa0565b935050602061302d86828701612fa0565b925050604061303e86828701612eeb565b9150509250925092565b61305181612eca565b82525050565b7f4e487b7100000000000000000000000000000000000000000000000000000000600052602160045260246000fd5b6003811061309757613096613057565b5b50565b60008190506130a882613086565b919050565b60006130b88261309a565b9050919050565b6130c8816130ad565b82525050565b600381106130df576130de613057565b5b50565b60008190506130f0826130ce565b919050565b6000613100826130e2565b9050919050565b613110816130f5565b82525050565b60006101208201905061312c600083018c613048565b613139602083018b612f5f565b818103604083015261314b818a612e6f565b9050818103606083015261315f8189612e6f565b905081810360808301526131738188612e6f565b905061318260a0830187612dee565b61318f60c08301866130bf565b61319c60e0830185613107565b8181036101008301526131af8184612e6f565b90509a9950505050505050505050565b6131c881612eca565b82525050565b6131d781612f4d565b82525050565b600082825260208201905092915050565b60006131f982612e18565b61320381856131dd565b9350613213818560208601612e34565b61321c81612e5e565b840191505092915050565b61323081612de2565b82525050565b61323f816130ad565b82525050565b61324e816130f5565b82525050565b600081519050919050565b600082825260208201905092915050565b6000819050602082019050919050565b600061328c83836131ee565b905092915050565b6000602082019050919050565b60006132ac82613254565b6132b6818561325f565b9350836020820285016132c885613270565b8060005b8581101561330457848403895281516132e58582613280565b94506132f083613294565b925060208a019950506001810190506132cc565b50829750879550505050505092915050565b60006101408301600083015161332f60008601826131bf565b50602083015161334260208601826131ce565b506040830151848203604086015261335a82826131ee565b9150506060830151848203606086015261337482826131ee565b9150506080830151848203608086015261338e82826131ee565b91505060a08301516133a360a0860182613227565b5060c08301516133b660c0860182613236565b5060e08301516133c960e0860182613245565b506101008301518482036101008601526133e382826131ee565b9150506101208301518482036101208601526133ff82826132a1565b9150508091505092915050565b600060208201905081810360008301526134268184613316565b905092915050565b600080fd5b600080fd5b7f4e487b7100000000000000000000000000000000000000000000000000000000600052604160045260246000fd5b61347082612e5e565b810181811067ffffffffffffffff8211171561348f5761348e613438565b5b80604052505050565b60006134a2612d49565b90506134ae8282613467565b919050565b600067ffffffffffffffff8211156134ce576134cd613438565b5b6134d782612e5e565b9050602081019050919050565b82818337600083830152505050565b6000613506613501846134b3565b613498565b90508281526020810184848401111561352257613521613433565b5b61352d8482856134e4565b509392505050565b600082601f83011261354a5761354961342e565b5b813561355a8482602086016134f3565b91505092915050565b6000806040838503121561357a57613579612d53565b5b600061358885828601612eeb565b925050602083013567ffffffffffffffff8111156135a9576135a8612d58565b5b6135b585828601613535565b9150509250929050565b6000602082840312156135d5576135d4612d53565b5b60006135e384828501612fa0565b91505092915050565b60006020820190506136016000830184613048565b92915050565b61361081612de2565b811461361b57600080fd5b50565b60008135905061362d81613607565b92915050565b6000806040838503121561364a57613649612d53565b5b600061365885828601612fa0565b92505060206136698582860161361e565b9150509250929050565b600067ffffffffffffffff82111561368e5761368d613438565b5b61369782612e5e565b9050602081019050919050565b60006136b76136b284613673565b613498565b9050828152602081018484840111156136d3576136d2613433565b5b6136de8482856134e4565b509392505050565b600082601f8301126136fb576136fa61342e565b5b813561370b8482602086016136a4565b91505092915050565b6000806000806080858703121561372e5761372d612d53565b5b600061373c87828801612fa0565b945050602061374d87828801612fa0565b935050604061375e87828801612eeb565b925050606085013567ffffffffffffffff81111561377f5761377e612d58565b5b61378b878288016136e6565b91505092959194509250565b60006020820190506137ac60008301846130bf565b92915050565b600381106137bf57600080fd5b50565b6000813590506137d1816137b2565b92915050565b600080604083850312156137ee576137ed612d53565b5b60006137fc85828601612eeb565b925050602061380d858286016137c2565b9150509250929050565b600061382282612f2d565b9050919050565b61383281613817565b82525050565b600060208201905061384d6000830184613829565b92915050565b600060ff82169050919050565b61386981613853565b811461387457600080fd5b50565b60008135905061388681613860565b92915050565b600080600080600060a086880312156138a8576138a7612d53565b5b600086013567ffffffffffffffff8111156138c6576138c5612d58565b5b6138d288828901613535565b955050602086013567ffffffffffffffff8111156138f3576138f2612d58565b5b6138ff88828901613535565b945050604086013567ffffffffffffffff8111156139205761391f612d58565b5b61392c88828901613535565b935050606061393d88828901613877565b925050608061394e88828901613877565b9150509295509295909350565b6003811061396857600080fd5b50565b60008135905061397a8161395b565b92915050565b6003811061398d57600080fd5b50565b60008135905061399f81613980565b92915050565b60008060008060008060c087890312156139c2576139c1612d53565b5b60006139d089828a01612eeb565b965050602087013567ffffffffffffffff8111156139f1576139f0612d58565b5b6139fd89828a01613535565b955050604087013567ffffffffffffffff811115613a1e57613a1d612d58565b5b613a2a89828a01613535565b945050606087013567ffffffffffffffff811115613a4b57613a4a612d58565b5b613a5789828a01613535565b9350506080613a6889828a0161396b565b92505060a0613a7989828a01613990565b9150509295509295509295565b60008060408385031215613a9d57613a9c612d53565b5b6000613aab85828601612fa0565b9250506020613abc85828601612fa0565b9150509250929050565b7f4e487b7100000000000000000000000000000000000000000000000000000000600052602260045260246000fd5b60006002820490506001821680613b0d57607f821691505b602082108103613b2057613b1f613ac6565b5b50919050565b7f5265736f6c766564207469636b65742063616e6e6f7420626520617070726f7660008201527f656420666f72207472616e736665720000000000000000000000000000000000602082015250565b6000613b82602f83612e23565b9150613b8d82613b26565b604082019050919050565b60006020820190508181036000830152613bb181613b75565b9050919050565b7f4552433732313a2063616c6c6572206973206e6f7420746f6b656e206f776e6560008201527f72206f7220617070726f76656400000000000000000000000000000000000000602082015250565b6000613c14602d83612e23565b9150613c1f82613bb8565b604082019050919050565b60006020820190508181036000830152613c4381613c07565b9050919050565b7f4552433732313a207472616e73666572206f6620746f6b656e2074686174206960008201527f73206e6f74206f776e0000000000000000000000000000000000000000000000602082015250565b6000613ca6602983612e23565b9150613cb182613c4a565b604082019050919050565b60006020820190508181036000830152613cd581613c99565b9050919050565b7f4552433732313a207472616e736665722063616c6c6572206973206e6f74206f60008201527f776e6572206e6f7220617070726f766564000000000000000000000000000000602082015250565b6000613d38603183612e23565b9150613d4382613cdc565b604082019050919050565b60006020820190508181036000830152613d6781613d2b565b9050919050565b7f5265736f6c766564207469636b65742063616e6e6f74206265207472616e736660008201527f6572726564000000000000000000000000000000000000000000000000000000602082015250565b6000613dca602583612e23565b9150613dd582613d6e565b604082019050919050565b60006020820190508181036000830152613df981613dbd565b9050919050565b7f4f6e6c79207469636b65742063726561746f722063616e207265736f6c76652060008201527f7469636b65740000000000000000000000000000000000000000000000000000602082015250565b6000613e5c602683612e23565b9150613e6782613e00565b604082019050919050565b60006020820190508181036000830152613e8b81613e4f565b9050919050565b7f5469636b657420616c7265616479207265736f6c766564000000000000000000600082015250565b6000613ec8601783612e23565b9150613ed382613e92565b602082019050919050565b60006020820190508181036000830152613ef781613ebb565b9050919050565b7f4552433732313a20696e76616c696420746f6b656e2049440000000000000000600082015250565b6000613f34601883612e23565b9150613f3f82613efe565b602082019050919050565b60006020820190508181036000830152613f6381613f27565b9050919050565b60008190508160005260206000209050919050565b60006020601f8301049050919050565b600082821b905092915050565b600060088302613fcc7fffffffffffffffffffffffffffffffffffffffffffffffffffffffffffffffff82613f8f565b613fd68683613f8f565b95508019841693508086168417925050509392505050565b6000819050919050565b600061401361400e61400984612eca565b613fee565b612eca565b9050919050565b6000819050919050565b61402d83613ff8565b6140416140398261401a565b848454613f9c565b825550505050565b600090565b614056614049565b614061818484614024565b505050565b5b818110156140855761407a60008261404e565b600181019050614067565b5050565b601f8211156140ca5761409b81613f6a565b6140a484613f7f565b810160208510156140b3578190505b6140c76140bf85613f7f565b830182614066565b50505b505050565b600082821c905092915050565b60006140ed600019846008026140cf565b1980831691505092915050565b600061410683836140dc565b9150826002028217905092915050565b61411f82612e18565b67ffffffffffffffff81111561413857614137613438565b5b6141428254613af5565b61414d828285614089565b600060209050601f831160018114614180576000841561416e578287015190505b61417885826140fa565b8655506141e0565b601f19841661418e86613f6a565b60005b828110156141b657848901518255600182019150602085019450602081019050614191565b868310156141d357848901516141cf601f8916826140dc565b8355505b6001600288020188555050505b505050505050565b7f4552433732313a2061646472657373207a65726f206973206e6f74206120766160008201527f6c6964206f776e65720000000000000000000000000000000000000000000000602082015250565b6000614244602983612e23565b915061424f826141e8565b604082019050919050565b6000602082019050818103600083015261427381614237565b9050919050565b7f4f6e6c7920636f6e7472616374206f776e65722063616e206368616e6765207460008201527f69636b6574207374617475730000000000000000000000000000000000000000602082015250565b60006142d6602c83612e23565b91506142e18261427a565b604082019050919050565b60006020820190508181036000830152614305816142c9565b9050919050565b7f496e76616c6964207469636b6574204944000000000000000000000000000000600082015250565b6000614342601183612e23565b915061434d8261430c565b602082019050919050565b6000602082019050818103600083015261437181614335565b9050919050565b600081905092915050565b600061438e82612e18565b6143988185614378565b93506143a8818560208601612e34565b80840191505092915050565b60006143c08285614383565b91506143cc8284614383565b91508190509392505050565b7f4e487b7100000000000000000000000000000000000000000000000000000000600052601160045260246000fd5b600061441282612eca565b91507fffffffffffffffffffffffffffffffffffffffffffffffffffffffffffffffff8203614444576144436143d8565b5b600182019050919050565b600061445a82612eca565b915061446583612eca565b925082820390508181111561447d5761447c6143d8565b5b92915050565b61448c81613853565b82525050565b600060a08201905081810360008301526144ac8188612e6f565b905081810360208301526144c08187612e6f565b905081810360408301526144d48186612e6f565b90506144e36060830185614483565b6144f06080830184614483565b9695505050505050565b7f4f6e6c79207469636b65742063726561746f722063616e20757064617465207460008201527f69636b6574000000000000000000000000000000000000000000000000000000602082015250565b6000614556602583612e23565b9150614561826144fa565b604082019050919050565b6000602082019050818103600083015261458581614549565b9050919050565b7f4552433732313a20617070726f76616c20746f2063757272656e74206f776e6560008201527f7200000000000000000000000000000000000000000000000000000000000000602082015250565b60006145e8602183612e23565b91506145f38261458c565b604082019050919050565b60006020820190508181036000830152614617816145db565b9050919050565b7f4552433732313a20617070726f76652063616c6c6572206973206e6f7420746f60008201527f6b656e206f776e6572206f7220617070726f76656420666f7220616c6c000000602082015250565b600061467a603d83612e23565b91506146858261461e565b604082019050919050565b600060208201905081810360008301526146a98161466d565b9050919050565b7f4552433732313a207472616e736665722066726f6d20696e636f72726563742060008201527f6f776e6572000000000000000000000000000000000000000000000000000000602082015250565b600061470c602583612e23565b9150614717826146b0565b604082019050919050565b6000602082019050818103600083015261473b816146ff565b9050919050565b7f4552433732313a207472616e7366657220746f20746865207a65726f2061646460008201527f7265737300000000000000000000000000000000000000000000000000000000602082015250565b600061479e602483612e23565b91506147a982614742565b604082019050919050565b600060208201905081810360008301526147cd81614791565b9050919050565b7f4552433732313a20617070726f766520746f2063616c6c657200000000000000600082015250565b600061480a601983612e23565b9150614815826147d4565b602082019050919050565b60006020820190508181036000830152614839816147fd565b9050919050565b7f4e487b7100000000000000000000000000000000000000000000000000000000600052601260045260246000fd5b7f4552433732313a206d696e7420746f20746865207a65726f2061646472657373600082015250565b60006148a5602083612e23565b91506148b08261486f565b602082019050919050565b600060208201905081810360008301526148d481614898565b9050919050565b7f4552433732313a20746f6b656e20616c7265616479206d696e74656400000000600082015250565b6000614911601c83612e23565b915061491c826148db565b602082019050919050565b6000602082019050818103600083015261494081614904565b9050919050565b7f4552433732313a207472616e7366657220746f206e6f6e20455243373231526560008201527f63656976657220696d706c656d656e7465720000000000000000000000000000602082015250565b60006149a3603283612e23565b91506149ae82614947565b604082019050919050565b600060208201905081810360008301526149d281614996565b9050919050565b600081519050919050565b600082825260208201905092915050565b6000614a00826149d9565b614a0a81856149e4565b9350614a1a818560208601612e34565b614a2381612e5e565b840191505092915050565b6000608082019050614a436000830187612f5f565b614a506020830186612f5f565b614a5d6040830185613048565b8181036060830152614a6f81846149f5565b905095945050505050565b600081519050614a8981612d89565b92915050565b600060208284031215614aa557614aa4612d53565b5b6000614ab384828501614a7a565b9150509291505056fea26469706673582212206fcb9f0c1cc072fb8a33f1a2d4c13463acbd7d94c4a16867559937a0718a35d564736f6c63430008100033",
  "immutableReferences": {},
  "source": "//SPDX-License-Identifier: UNLICENSED\n\n//Name 1: Joshua Wajnryb\n//UBIT 1: jwajnryb\n//Person Number 1: 50366137\n\n//Name 2: Naglis Paunksnis\n//UBIT 2: naglispa\n//Person Number 2: 50306281\n\npragma solidity ^0.8.0;\n\nimport \"@openzeppelin/contracts/token/ERC721/ERC721.sol\";\n\n/*\ninterface ERC721 {\n\n   event Transfer(address indexed _from, address indexed _to, uint256 indexed _tokenId);\n   event Approval(address indexed _owner, address indexed _approved, uint256 indexed _tokenId);\n   event ApprovalForAll(address indexed _owner, address indexed _operator, bool _approved);\n\n   function balanceOf(address _owner) external view returns (uint256);\n   function ownerOf(uint256 _tokenId) external view returns (address);\n\n   function safeTransferFrom(address _from, address _to, uint256 _tokenId, bytes memory data) external payable;\n   function safeTransferFrom(address _from, address _to, uint256 _tokenId) external payable;\n   function transferFrom(address _from, address _to, uint256 _tokenId) external payable;\n\n   function approve(address _approved, uint256 _tokenId) external payable;\n   function setApprovalForAll(address _operator, bool _approved) external;\n   function getApproved(uint256 _tokenId) external view returns (address);\n   function isApprovedForAll(address _owner, address _operator) external view returns (bool);\n\n}\n\ninterface ERC721Metadata {\n\n    function name() external view returns (string memory _name);\n    function symbol() external view returns (string memory _symbol);\n    function tokenURI(uint256 _tokenId) external view returns (string memory);\n\n}\n*/\n\npragma solidity ^0.8.0;\n\ncontract ITHelpdesk is ERC721(\"CryptoTechSupport\", \"CTS\") {\n\n    enum DeviceType {Laptop, Desktop, Mobile}\n    enum TicketStatus {Open, InProgress, Resolved}\n    enum Difficulty {Easy, Medium, Hard}\n\n    struct Ticket {\n        uint256 id;\n        address user;\n        string title;\n        string issue;\n        string description;\n        bool resolved;\n        Difficulty difficulty;\n        DeviceType deviceType;\n        string solution;\n        string[] notes;\n    }\n\n    uint256 public ticketCount;\n    mapping(uint256 => Ticket) public tickets;\n\n    address payable public contractOwner;\n\n    constructor() {\n        contractOwner = payable(msg.sender);\n    }\n\n    ///////////////////////// Events ///////////////////////////////////\n    event TicketCreated(uint256 indexed ticketId, string title, string issue, string description, uint8 difficulty, uint8 deviceType);\n    event TicketResolved(uint256 indexed ticketId);\n\n    ////////////////////////////// Contract Specific Functions /////////////////////////////////////////\n    function createTicket(string memory _title, string memory _issue, string memory _description, uint8 _difficulty, uint8 _deviceType) public payable returns (uint256) {\n       // uint256 paymentAmount = 10**16; // 0.01 ETH\n\n        Ticket memory newTicket = Ticket(ticketCount, msg.sender, _title, _issue, _description, false, Difficulty(_difficulty), DeviceType(_deviceType), \"\", new string[](0));\n        tickets[ticketCount] = newTicket;\n        ticketCount++;\n\n        // Transfer payment to contract owner\n        //contractOwner.transfer(paymentAmount);\n\n        uint256 newTicketId = ticketCount - 1;\n\n        _mint(msg.sender, newTicketId); // Mint the NFT for the new ticket\n\n        emit TicketCreated(newTicketId, _title, _issue, _description, _difficulty, _deviceType);\n        return newTicketId;\n    }\n\n    function updateTicket(uint256 _ticketId, string memory _title, string memory _issue, string memory _description, Difficulty _difficulty, DeviceType _deviceType) public {\n        require(tickets[_ticketId].user == msg.sender, \"Only ticket creator can update ticket\");\n        tickets[_ticketId].title = _title;\n        tickets[_ticketId].issue = _issue;\n        tickets[_ticketId].description = _description;\n        tickets[_ticketId].difficulty = _difficulty;\n        tickets[_ticketId].deviceType = _deviceType;\n    }\n\n    function changeStatus(uint256 _ticketId, TicketStatus _status) public {\n        require(msg.sender == contractOwner, \"Only contract owner can change ticket status\");\n        require(_ticketId < ticketCount, \"Invalid ticket ID\");\n        tickets[_ticketId].resolved = (_status == TicketStatus.Resolved);\n}\n\n    function ticketSolution(uint256 _ticketId, string memory _solution) public {\n        tickets[_ticketId].solution = _solution;\n    }\n\n    function ticketNotes(uint256 _ticketId, string memory _note) public {\n        tickets[_ticketId].notes.push(_note);\n    }\n\n    //Once the ticket is resolved it can be bought and traded as an NFT\n    function resolveTicket(uint256 _ticketId) public {\n        require(tickets[_ticketId].user == msg.sender, \"Only ticket creator can resolve ticket\");\n        require(!tickets[_ticketId].resolved, \"Ticket already resolved\");\n        tickets[_ticketId].resolved = true;\n        payable(msg.sender).transfer(0.01 ether);\n        emit TicketResolved(_ticketId);   \n    }\n\n\n    // View Functions //\n\n    //NEW FUNCTION: fetches tickets\n    function fetchTicket(uint256 _ticketId) public view returns (Ticket memory) {\n        return tickets[_ticketId];\n    }\n\n    function getTicketStatus(uint256 _ticketId) public view returns (bool) {\n        return tickets[_ticketId].resolved;\n    }\n\n    function getTicketDifficulty(uint256 _ticketId) public view returns (Difficulty) {\n        return tickets[_ticketId].difficulty;\n    }\n\n    function getNumberOfTickets() public view returns (uint256) {\n        return ticketCount;\n    }\n\n    /////////////////////// ERC721 Specific Functions ////////////////////////////////////////\n\n    function safeTransferFrom(address from, address to, uint256 tokenId) public virtual override {\n        require(ownerOf(tokenId) == from, \"ERC721: transfer of token that is not own\");\n        require(_isApprovedOrOwner(_msgSender(), tokenId), \"ERC721: transfer caller is not owner nor approved\");\n        require(!tickets[tokenId].resolved, \"Resolved ticket cannot be transferred\");\n        _transfer(from, to, tokenId);\n    }\n\n    function approve(address to, uint256 tokenId) public virtual override {\n        require(!tickets[tokenId].resolved, \"Resolved ticket cannot be approved for transfer\");\n        super.approve(to, tokenId);\n    }\n\n    function safeTransferFrom(address from, address to, uint256 tokenId, bytes memory _data) public virtual override {\n        require(!tickets[tokenId].resolved, \"Resolved ticket cannot be transferred\");\n        super.safeTransferFrom(from, to, tokenId, _data);\n    }\n\n}",
  "sourcePath": "/Users/joshuawajnryb/Desktop/BlockchainProject2/CTS-contract/contracts/ITHelpdesk.sol",
  "compiler": {
    "name": "solc",
    "version": "0.8.16+commit.07a7930e.Emscripten.clang"
  },
  "schemaVersion": "3.4.13",
  "updatedAt": "2023-05-10T00:13:19.823Z",
  "networkType": "ethereum",
  "devdoc": {
    "kind": "dev",
    "methods": {
      "approve(address,uint256)": {
        "details": "See {IERC721-approve}."
      },
      "balanceOf(address)": {
        "details": "See {IERC721-balanceOf}."
      },
      "getApproved(uint256)": {
        "details": "See {IERC721-getApproved}."
      },
      "isApprovedForAll(address,address)": {
        "details": "See {IERC721-isApprovedForAll}."
      },
      "name()": {
        "details": "See {IERC721Metadata-name}."
      },
      "ownerOf(uint256)": {
        "details": "See {IERC721-ownerOf}."
      },
      "safeTransferFrom(address,address,uint256)": {
        "details": "See {IERC721-safeTransferFrom}."
      },
      "setApprovalForAll(address,bool)": {
        "details": "See {IERC721-setApprovalForAll}."
      },
      "supportsInterface(bytes4)": {
        "details": "See {IERC165-supportsInterface}."
      },
      "symbol()": {
        "details": "See {IERC721Metadata-symbol}."
      },
      "tokenURI(uint256)": {
        "details": "See {IERC721Metadata-tokenURI}."
      },
      "transferFrom(address,address,uint256)": {
        "details": "See {IERC721-transferFrom}."
      }
    },
    "version": 1
  },
  "userdoc": {
    "kind": "user",
    "methods": {},
    "version": 1
  }
}